:1000000000800020BD010000ED5A0000B15A000040
:10001000B15A0000B15A0000B15A0000B15A0000B4
:10002000B15A0000B15A0000B15A0000ED5A000068
:10003000ED5A0000B15A0000ED5A0000A15A00002C
:10004000ED5A0000ED5A0000ED5A0000ED5A000094
:10005000ED5A0000ED5A0000ED5A0000ED5A000084
:10006000ED5A0000ED5A0000ED5A0000ED5A000074
:10007000ED5A0000ED5A0000ED5A0000ED5A000064
:10008000ED5A0000ED5A0000ED5A0000ED5A000054
:10009000ED5A0000ED5A0000ED5A0000ED5A000044
:1000A0005155000061550000ED5A0000ED5A000066
:1000B000ED5A0000ED5A0000ED5A0000ED5A000024
:1000C000ED5A0000ED5A0000ED5A0000ED5A000014
:1000D000ED5A0000ED5A0000ED5A0000ED5A000004
:1000E000ED5A0000ED5A0000ED5A0000ED5A0000F4
:1000F000ED5A0000F1680000ED5A00004183000055
:10010000ED5A000061880000ED5A0000ED5A000031
:10011000ED5A0000ED5A0000ED5A0000ED5A0000C3
:10012000ED5A0000ED5A0000ED5A0000ED5A0000B3
:10013000ED5A0000ED5A0000ED5A0000ED5A0000A3
:10014000ED5A0000ED5A0000ED5A0000ED5A000093
:1001500089780000A1780000B9780000D17800000B
:10016000ED5A0000DD6B0000ED5A0000ED5A000072
:10017000ED5A0000ED5A0000ED5A0000ED5A000063
:10018000ED5A0000ED5A0000ED5A0000ED5A000053
:10019000ED5A0000ED5A0000ED5A0000ED5A000043
:1001A000ED5A0000ED5A0000ED5A0000ED5A000033
:1001B000ED5A0000ED5A0000ED5A0000574B4CF28A
:1001C000205210B51A804DF628121A8000BF00BFC9
:1001D00005F090FC524B4FF010621A60514A9A6041
:1001E000514ADA60A3F53043203B1A6812F480725A
:1001F00004D14E490A604FF4A8521A604C4B1A7849
:10020000110703D51A7842F008021A70494B4A4C7C
:100210004A482A221A704A4A00239918A14203D256
:10022000195899500433F8E7464B474900228B424E
:1002300002D243F8042BFAE74448454900235A58B0
:100240001A500433B3F5DE7FF9D1424B424A802184
:1002500003F8011B9342FBD1404B3C4A1A60404BD0
:100260000A221A70A3F5805324225A70A0221A7011
:100270009A799207FCD59A79D406FCD4394A9379B5
:1002800003F00C03082B374BF9D103221A714022DB
:100290005A719A799006FCD5324A9179314B4906C8
:1002A000FBD5314A314911600221516020221A7078
:1002B0009A7902F00C020C2AFAD12D4B2D4A1A60C1
:1002C0002D4B2E4A1A6000225A60072243F8042C54
:1002D0002B4AC3F80C2D62B606F038F8134B1B6896
:1002E000DA0705D5274805F0FDFD274B274A1A6098
:1002F000274B1B785B0609D5234C244A236893427D
:1003000004D1204805F0EEFD002323600AF010F927
:1003100005F0F6FB07F08CFCFEE700BF0E20054061
:1003200030800440823F04000100002B14D00340C1
:1003300002D0074000E007407495FF1FC816010077
:100340006087FF1F7495FF1FEC9AFF1F0082FF1F3D
:100350000000000000E400E05FE400E008ED00E0E1
:100360000050064000400640448004400000030165
:1003700004800440C010050014E000E0FF76010096
:100380000000202035280E571CE00340A5C3945AD6
:1003900000F00740FFFFFFFFFFFFFFFFFFFFFFFF32
:1003A000FFFFFFFFFFFFFFFFFFFFFFFFFFFFFFFF5D
:1003B000FFFFFFFFFFFFFFFFFFFFFFFFFFFFFFFF4D
:1003C000FFFFFFFFFFFFFFFFFFFFFFFFFFFFFFFF3D
:1003D000FFFFFFFFFFFFFFFFFFFFFFFFFFFFFFFF2D
:1003E000FFFFFFFFFFFFFFFFFFFFFFFFFFFFFFFF1D
:1003F000FFFFFFFFFFFFFFFFFFFFFFFFFFFFFFFF0D
:10040000FFFFFFFFFFFFFFFFFFFFFFFFFEFFFFFFFD
:1004100010B5054C237833B9044B13B10448AFF33E
:1004200000800123237010BD7495FF1F00000000A1
:10043000C016010008B5064B1BB106480649AFF3CC
:1004400000800648036813B1054B03B1984708BD07
:1004500000000000C01601007895FF1F7495FF1F73
:100460000000000010B5082805D95C485C495E22F0
:1004700003F092F9FEE708280EBF4FF43052C20194
:1004800042F47052574B1A80564B1A8892001A80C9
:100490001620012105F008FE534B1A68534B1B78B8
:1004A000002B28D072B6514B1B7813F0010F07D0E8
:1004B0004F4B18684F49096801404F480160196067
:1004C0004A4B1B7813F0020F07D04C4B1868494970
:1004D00049680140484841601960444B1B7813F05B
:1004E000040F07D0464B18684249896801404248CA
:1004F0008160196062B6434BDB68934208D0414B80
:1005000041491960DA6042F080421A613F4A1A603C
:100510001620002105F096FD324B1A88394B4FF01A
:100520000041D962110A59631946CB6A002BFCDAE3
:10053000344B996B4FF00041D962D2B25A631A46DC
:10054000D36A002BFCDA2F4CA36B1620012105F097
:1005500079FDC023013B7FF4FDAF1620002105F09B
:1005600071FD204B1A884FF00043E362130A636366
:100570002146CB6A002BFCDA224B996B4FF00041ED
:10058000D962D2B25A631A46D36A002BFCDA1D4BE9
:100590009B6B1620012105F055FDC023013B7FF424
:1005A000FDAF124B1B78C3B113F0010F03D0124BF8
:1005B0001A68174B1A600D4B1B7813F0020F03D00B
:1005C0000D4B5A68134B1A60084B1B7813F0040F3D
:1005D00003D0094B9A68104B1A6010BDE006010069
:1005E000F80601009095FF1F9495FF1F2C97FF1FA1
:1005F00080E100E01497FF1F2097FF1F84E100E0D7
:1006000088E100E000C0024001401F0000001F80A0
:1006100000E100E004E100E008E100E00223024A1A
:100620001360043A1360704788F00F402DE9F843D7
:100630004A1E40F6FE739A4205D946484649C722EB
:1006400003F0AAF8FEE7454B1A68454B1B78002BD0
:1006500028D072B6424B1B7813F0010F07D0414BE4
:100660001D68414C24682C40404D2C601C603C4B64
:100670001B7813F0020F07D03D4B1D683A4C64689D
:100680002C403A4D6C601C60354B1B7813F0040F06
:1006900007D0384B1D68344CA4682C40334DAC60F7
:1006A0001C6062B6344BDB68934208D0324B334C4B
:1006B0001C60DA6042F080421A61314A1A60B1F17E
:1006C000FF3F28DB05466FF001042E4F02202E4E1F
:1006D000DFF8C490284A4FF000484FF0400C3860D3
:1006E00030603860B9F80030C2F82C8043F0805395
:1006F0005363D36A002BFCDA936B9BB23060002CFF
:10070000A8BF25F8043C6346013B7FF4FDAF0134EC
:1007100002358C42E3D1124B1B78C3B113F0010FA9
:1007200003D0124B1A68194B1A600D4B1B7813F04B
:10073000020F03D00D4B5A68154B1A60084B1B78FB
:1007400013F0040F03D0094B9A68124B1A60BDE8EE
:10075000F88300BFE0060100F80601009495FF1F32
:100760002C97FF1F80E100E01497FF1F2097FF1FC9
:1007700084E100E088E100E000C0024001401F0089
:1007800000001F8088F00F4084F00F4000E100E07F
:1007900004E100E008E100E09095FF1F2DE9F00F73
:1007A000DDF82090400240F4704A0AF47E4A52027A
:1007B00042F4704B0BF47E4B4C4A10684C4A127852
:1007C000002A28D072B64A4A127812F0010F07D0D8
:1007D000484A1568484C24682C40484D2C601460E9
:1007E000434A127812F0020F07D0454A1568424C6E
:1007F00064682C40414D6C6014603D4A127812F0E0
:10080000040F07D03F4A15683B4CA4682C403B4D71
:10081000AC60146062B63C4AD268824208D03A4A60
:100820003A4C1460D06040F080401061384810604D
:10083000B9F1FF3F3BDB6FF00105364F0224364E26
:10084000314A4FF000484AF0805A4FF0600C3C604B
:1008500034603C60C2F82C80C2F834A0D06A002812
:10086000FCDA906B80B2002DA8BF21F8040C346034
:10087000604601387FF4FDAF3C6034603C60C2F8F4
:100880002C804BF080505063D06A0028FCDA906BCB
:1008900080B2002DA8BF23F8040C346060460138F4
:1008A0007FF4FDAF0135023302314D45CFD1104BFE
:1008B0001B78C3B113F0010F03D0104B1A68174B0C
:1008C0001A600B4B1B7813F0020F03D00B4B5A68C6
:1008D000134B1A60064B1B7813F0040F03D0074B21
:1008E0009A68104B1A60BDE8F00F70479495FF1F8F
:1008F0002C97FF1F80E100E01497FF1F2097FF1F38
:1009000084E100E088E100E000C0024001401F00F7
:1009100000001F8088F00F4084F00F4000E100E0ED
:1009200004E100E008E100E0014A024B1A60704770
:10093000000001B89495FF1F08B50A46A0B1431EF8
:10094000092B05D909480A493B2202F025FFFEE799
:10095000084931F91300084951F82000074911F8F6
:10096000131092B203F034FC08BD00BFE006010092
:10097000640701003C0701009895FF1F5007010024
:100980000123084A1360403A1360022111602022BB
:10099000013A7FF4FDAF044A1360403A13601160DE
:1009A000704700BF88F00F4084F00F402DE9F047FA
:1009B00082B00F20012105F077FB0124214B1C6040
:1009C0001020214605F070FB1F4D2C6011202146A0
:1009D00005F06AFB02232B60DFF87090A0464FF011
:1009E000340A27460025504607F02AF904465FFAE4
:1009F00088F103F063FB49F8044B00972046394621
:100A00003A463B4603F088FB4E4659F8040C0095E5
:100A100029462A462B4603F0AFFB2C4656F8040C19
:100A2000E1B22A4603F0D4FB0134042CF6D108F1DC
:100A30000108B8F1040FD6D1FFF7A2FF002002B0E1
:100A4000BDE8F08784F00F4044F00F409895FF1FF9
:100A50002DE9F04383B007460D461646072A00F2FB
:100A60009980072900F2998000925F485F493A46D1
:100A70002B4607F01DF8FFB23846012105F014FBA4
:100A80000A2005F04DFC5A4B53F83730012283F809
:100A90008020584C2069617B03F0E6FF206990F8C4
:100AA0004A32022B0CBF54495449002203F0AAFCDD
:100AB0004FF4FA7005F034FC5FFA85F84D4C20468F
:100AC00048F0600104F0A2F823684FEA880848F073
:100AD00061011B68204601F0FD0198475FFA86F826
:100AE0004FEA88095FFA89F923681B68204649F0B4
:100AF0006201984723681B68204649F063019847C4
:100B0000B200AB0042F06201009142F06302019238
:100B100035483B4945F0C00243F0610306F0C8FF89
:100B200072B62069617B0122002304F07DF84FF446
:100B3000B353013B7FF4FDAF2D4B53F83730012207
:100B400083F8002162B62069617B002204F08CF9F1
:100B500081460128244C23685B68204619BF294937
:100B60001122294914229847204606F08BFF17E0EE
:100B70001D482649324606F09BFF1E4B186990F827
:100B80004A32022B0CBF1C491C49032203F03AFCD9
:100B9000484625E04FF0FF3022E04FF0FF301FE0E5
:100BA0004FF47A7005F0BCFB114B53F83730012538
:100BB00083F880500F4C204648F0600104F026F87E
:100BC00023681B682046062198472169627B002321
:100BD000009320462B4604F093F90028CDD1C7E7B7
:100BE00003B0BDE8F08300BF7499FF1FA4070100A4
:100BF000001001000097FF1F00D8B805006CDC0250
:100C0000D4070100EC0701000008010018080100EA
:100C100070B505463F4C206803F0B8F908F00AFFAC
:100C20003D4B1860206803F0BBF908F003FF3B4B15
:100C30001860206803F0BEF908F0FCFE384B18601D
:100C4000206803F0C1F908F0F5FE0446354B186042
:100C5000002D2CD1344B186808F0F0FE0546334EB9
:100C60002D4B1868294608F0F1FF316808F032FE74
:100C700030602F4E294B1868294608F0E7FF31688D
:100C800008F028FE30602B4E254B1868294608F0E6
:100C9000DDFF316808F01EFE3060274E20462946F1
:100CA00008F0D4FF316808F015FE30602DE0012D0A
:100CB0002BD11D4B186808F0C1FE05461F4E164B80
:100CC0001868294608F0C2FF316808F003FE30605A
:100CD0001B4E124B1868294608F0B8FF316808F01F
:100CE000F9FD3060174E0E4B1868294608F0AEFF2C
:100CF000316808F0EFFD3060134E2046294608F0B9
:100D0000A5FF316808F0E6FD3060034B186809F074
:100D1000AFF870BDF895FF1FEC95FF1FE895FF1F1A
:100D2000A495FF1FE495FF1F6487FF1FAC95FF1F6D
:100D30000496FF1F0896FF1FF095FF1FA895FF1F41
:100D4000FC95FF1FF495FF1F0096FF1F08B5024892
:100D5000012103F0B3F908BDB095FF1F10B504469B
:100D600006F086FE204610BD124B1B78124AD15C5D
:100D7000124B1B8872B6124A52F83120012082F8B9
:100D800080004FF4A072013A7FF4FDAF0D4A40207D
:100D90001060102010605A011BB11346013B7FF414
:100DA000FDAF074B53F83120012382F80031064A8A
:100DB000137070474896FF1F400801004096FF1FC0
:100DC00000100100C8F00F402896FF1F2DE9F04FDA
:100DD000ADF57F5D85B002AF322005F0A1FA0024A9
:100DE00007F5A47343F8044BC7F84C41043343F8A8
:100DF000044B43F8044B43F8044B43F8044B43F8CB
:100E0000044B43F8044B43F8044B1C60C7F8704193
:100E1000C7F87441C7F87841C7F87C41C7F88041EA
:100E2000C7F8844107F5C47343F8044BC7F88C41F5
:100E3000043343F8044B1C60C7F89841C7F89C4141
:100E4000C7F8A041C7F8A441C7F8A841C7F8AC410A
:100E5000C7F8B041C7F8B441C7F8B841C7F8BC41BA
:100E6000012009F0A1FB3863C7F89840C7F89C40FF
:100E700007F5457507F5097400262046314606F04A
:100E800071FE1034AC42F8D107F58860002141F2C0
:100E9000883209F095FE07F50974C74E20463146A1
:100EA00006F074FE1034AC42F8D1DFF874B34FF0A2
:100EB0007C5A02F0E3FB044602F030FBB4F1FF3F42
:100EC000F7D002F02DFB5B2C00F00F8407F5457086
:100ED000BA494FF4FA72312302F05EFD07F545700E
:100EE0000AF076FD0228E4D997F81443204609F069
:100EF00047FB30B1303C092C03D9B14802F0EAFB82
:100F0000D7E703F093F807F5457009F0C1FA40F20E
:100F1000F233984200F0A08138DC40F2EB33984283
:100F200000F0B980B0F57B7F19DA40F29B2398423C
:100F30007BD0B0F5277F08DAB0F5DC7F00F0D183F5
:100F400040F29A2398426CD0C6E340F2E9339842CB
:100F50006FD000F38780B0F57A7F5BD0BCE340F2BE
:100F6000EE33984200F0E48009DCB0F57B7F00F0BE
:100F7000AC8040F2ED33984200F0C080ACE3B0F5B5
:100F80007C7F00F0008140F3EC804BE140F20143B4
:100F9000984200F01D821BDCB0F57F7F00F0B1812C
:100FA0000ADC40F2F333984200F06F8140F2FB33E9
:100FB000984200F085818FE340F2FE33984200F0C2
:100FC000E481C0F2BC81B0F5806F00F0EE8183E374
:100FD00040F6CC73984200F023820CDC40F20343CD
:100FE000984200F0AA81C0F2FD8140F20443984289
:100FF00000F0008270E340F6CF73984200F0BC82AC
:10100000B0F57D6F00F0158340F6CD73984240F047
:10101000638371E26B4802F05DFB6B4802F082FC77
:101020005FE36A4802F056FB5BE3694802F052FB5B
:1010300057E3684802F076FC01203221FFF77CFC80
:10104000FFF79EFC8024CBF800404FF47A7005F047
:1010500067F9614B1C6001200021FFF76DFCFFF771
:101060008FFC3EE35D4802F05DFC02203221FFF779
:1010700063FCFFF785FC2024CBF800404FF47A7026
:1010800005F04EF9544B1C6002200021FFF754FC80
:10109000FFF776FC25E3524802F044FC032032219E
:1010A000FFF74AFCFFF76CFC4FF480544D4B1C607B
:1010B0004FF47A7005F034F94B4B1C60032000218B
:1010C000FFF73AFCFFF75CFC0BE3484802F02AFC10
:1010D00004203221FFF730FCFFF752FC1024444A71
:1010E00014604FF47A7005F01BF9424B1C60042029
:1010F0000021FFF721FCFFF743FCF2E23E4802F03B
:1011000011FC05203221FFF717FCFFF739FC4FF4E3
:101110000054344B1C604FF47A7005F001F9324BE7
:101120001C6005200021FFF707FCFFF729FCD8E22F
:10113000324802F0F7FB06203221FFF7FDFBFFF7F4
:101140001FFC2024274B1C604FF47A7005F0E8F850
:10115000254B1C6006200021FFF7EEFBFFF710FC7B
:10116000BFE2274802F0B6FA264802F0B3FA264852
:1011700002F0B0FA254802F0ADFA254802F0AAFACA
:1011800002F0FEFBADE2234802F0CCFB0820322146
:10119000FFF7D2FBFFF7F4FB02241F4B1C604FF458
:1011A0007A7005F0BDF81D4B1C6008200021FFF788
:1011B000C3FBFFF7E5FB94E22C0A01004C08010099
:1011C000500801007408010080080100880801002F
:1011D00090080100A0080100C8F00F40A808010015
:1011E000B008010004F00F4008F00F40B8080100FB
:1011F00084F00F4088F00F40C0080100C8080100CB
:10120000D0080100EC080100000901001C090100E0
:10121000400901004409010004F10F4008F10F40AA
:10122000C4F00F40B64802F07DFB09203221FFF7E1
:1012300083FBFFF7A5FB4FF40024B24B1C604FF477
:101240007A7005F06DF8B04B1C6009200021FFF7A3
:1012500073FBFFF795FB44E2AC4802F063FB0A2006
:101260003221FFF769FBFFF78BFB0424A84B1C60BE
:101270004FF47A7005F054F8A64B1C600A20002148
:10128000FFF75AFBFFF77CFB2BE2A34802F022FAA0
:10129000A24E4FF4FA65A24C3046294602F0BCFB40
:1012A00080460A2002F01EFB204602F013FAB8F135
:1012B000FF3FF1D19B4802F00DFA02F061FB10E212
:1012C000994C2368D3F85C02042102F035FB07F542
:1012D000BE500830914944F620620A2302F05CFBBC
:1012E000924807F5BE51083102F056FA246807F516
:1012F000BE50083009F0C8F808F096FAC4F85C024D
:10130000EFE1894C2368D3F86002042102F014FB5A
:101310002568824844F6206102F06EFB08F084FAEA
:10132000C5F860022368D3F8600207F047FF024661
:101330000B467F4802F030FAD3E105F04DFC002067
:101340000146FFF78FF807F5BE5008306421FFF71C
:101350006DF907F5BE5E0EF1080EAEF102040EF156
:10136000C606744D34F8020F02F0BCFA284602F0AB
:10137000B1F9B442F6D1704802F0D4FA0020014627
:10138000FFF770F8FFF74AF9ABE10F2000210122C7
:10139000FFF75EFB102000210222FFF759FB11200E
:1013A00000210322FFF754FB9BE1644802F092F90D
:1013B0006348002102F030FB04466248214602F0F7
:1013C000EBF9204602F02AFA5F4802F0ABFA88E116
:1013D0005E4802F07FF95A48002102F01DFB02F03E
:1013E00001FA7EE10A245A4D284602F09BFA013C9C
:1013F000FAD176E14C4C23685648998802F0CCF932
:101400002368D868002102F097FA2368586A0021FF
:1014100002F092FA23685048196802F0BDF960E1C1
:101420004E4802F07FFA05204FF49671FFF784FAD8
:10143000FFF7A6FA00200146FFF714F81024CBF8B6
:1014400000404FF47A7004F06BFF72B64FF4005313
:10145000434A13604FF47072013A7FF4FDAF414A82
:1014600014604FF4A072013A7FF4FDAF3E4A13605E
:101470004FF4F063013B7FF4FDAF04F02FFF06460D
:1014800007F5BE5008306421FFF7D0F804F026FFBE
:10149000861B62B607F5BE5508350024DFF8B48018
:1014A000288808F0CBFA8146204608F0C7FA2F4971
:1014B00008F018FB0146484608F00CFA08F0FEFC5C
:1014C00081B225F8021B404602F066F90134642C13
:1014D000E6D107F5BE500830642101F073FF07F034
:1014E0006DFE02460B46224802F056F9214831466D
:1014F000642202F051F9F4E0012001F005FFF0E070
:101500004C09010044F00F4048F00F40540901001D
:1015100084F00F4088F00F405C0901004C08010086
:1015200074090100780901006887FF1F7C09010028
:101530008C0901009C0901002C0A0100A00901008E
:10154000B0090100B4090100C8090100D409010073
:10155000140A0100F4060100280A0100300A010003
:1015600004F00F40C8F00F4008F00F403333B33F92
:10157000380A0100600A0100B54802F0D3F90020E2
:101580000146FEF76FFF05204FF42F71FFF7D4F9E6
:10159000FFF7F6F907F5BE56063600241025A946D2
:1015A000DFF80083CBF80090212004F0B9FE72B67A
:1015B0004FF40053C8F800304FF4A073013B7FF4A0
:1015C000FDAFA44A1560630102D0013B7FF4FDAF7B
:1015D0004FF40053DFF8D0E2CEF8003007F5E070AA
:1015E0001521FFF723F862B607F5E0701521524682
:1015F00001F0D0FE024626F8020F4FF6FF73984224
:1016000006D09548214602F0C7F80134642CC9D1B0
:1016100007F5BE5508352846214601F0D3FE07F0F0
:10162000CDFD02460B46298800918C4802F0B4F8A3
:1016300057E08B4802F076F900200146FEF712FFD2
:101640000520C821FFF778F9FFF79AF90522854BA5
:101650001A702822844B1A8084488549854A06F0EE
:10166000EFF907F5BE56063600244FF01009824DFB
:101670004FF00008CBF8009085F800802B7813F02D
:10168000FF0FFBD072B607F5E0701321FEF7CEFF17
:1016900062B607F5E0701321524601F07BFE26F892
:1016A000020F4FF6FF73984202D00134642CE1D14F
:1016B0006E4806F0DDF907F5BE5508352846214687
:1016C00001F080FE07F07AFD02460B462988009162
:1016D000624802F061F804E0684807F5457102F0DD
:1016E0005BF802F0BDF8FFF7E4BB07F588606449DA
:1016F0004FF4FA7241F2883302F04EF907F5886030
:1017000001F0BAFE20B10124002179640D461FE0EA
:101710005C4801F0DFFF01F0F7BC07F58863195D55
:101720007B2914D11E46264407F5097202EB0518E1
:10173000404606F051FA013416F8011F7D29F7D111
:1017400007F5097303EB051006F046FA013501347D
:1017500007F588600AF03CF98442DED37D643D627F
:10176000494B10221A6040221A600A2004F0D8FD6A
:1017700002F05CFC454B1B684548196802F00CF808
:101780004448454902F008F8444801F0A3FF00240A
:10179000FC653C67C7F88C40FC6225464FF0010EA3
:1017A000C7F848E00021B9623D4801F093FF3A6A6A
:1017B000002A41F3318400247C65386B08F0FCFE7C
:1017C00007F509767C6D250173199C68601C08F08B
:1017D000EBFE3863715922460AF084F90023D7F8EA
:1017E00030E00EF8043007F5457002F0ADFB07F568
:1017F0004570396B07F5BE5208324FF4167302F08C
:101800001BFA002210B907F5BE52083207F57E54C4
:1018100030342046396B02F069F907F1980394E8F7
:10182000030083E80300002801F06784D7F89C30A8
:10183000002B3BD101F061BC07F50973185901F089
:1018400049FF1034AC42F7D102F00AF801F05CBC59
:10185000800A0100C8F00F40980A0100A00A0100A8
:10186000D40A01004896FF1F4096FF1F2C96FF1FC9
:10187000690D0000FF7601002896FF1FF00A0100A5
:10188000040B0100080B0100C4F00F406887FF1F24
:101890001C0B0100300B0100480B0100500B010034
:1018A0005C0B010004F00F4008F00F400024FC64C2
:1018B00007F1A00007F19801A14A02F053F907F1DE
:1018C000A80007F198019F4A02F04CF907F1B00017
:1018D00007F198019C4A02F045F907F1B80007F1B9
:1018E00098019A4A02F03EF907F19800984902F0EF
:1018F00047F980B2786607F1C00007F19801954A70
:1019000002F030F907F19800934902F043F90146DB
:1019100007F5947006F026F907F198008F4902F058
:101920002FF907F198008E4902F02AF910B18D4A7B
:10193000106002E001228B4B1A6007F198008A497F
:1019400002F01EF9F86107F19800884902F018F9D1
:10195000B86107F19800864902F012F9B86407F1FE
:101960009800844902F00CF9B86007F198008249A8
:1019700002F006F9F86007F19800804902F000F9DA
:101980000028044608BF01243C6507F198007C4903
:1019900002F0F6F8786107F198007A4902F0F0F861
:1019A000386107F19800784902F0EAF818B9002286
:1019B000764B1A6006E007F19800734902F0E0F8F0
:1019C000724B186007F19800714902F0D9F807F1DD
:1019D0009800704902F0D4F807F198006E4902F0BF
:1019E000CFF807F198006D4902F0CAF807F1C80076
:1019F00007F198016A4A02F0B5F807F1D00007F143
:101A00009801684A02F0AEF807F1D80007F1980192
:101A1000654A02F0A7F807F1E00007F19801634A70
:101A200002F0A0F807F1E80007F19801604A02F01F
:101A300099F807F5847407F1F00007F198015D4A01
:101A400002F090F8A4F1100007F198015A4A02F050
:101A500089F8A4F1080007F19801584A02F082F8C9
:101A6000204607F19801564A02F07CF807F5887085
:101A700007F19801534A02F075F800253D647D6333
:101A8000AA46AB4655E007F1C000294602F01AF815
:101A9000064607F575540834204607F1F8012A4632
:101AA00001F0F8FF63680BB1DB6800E0002303FB83
:101AB00006BB0024A04607F575561836A14612E06D
:101AC00007F57550103007F1F8012A4601F0E2FFE2
:101AD00007F575501030214601F0F4FF0028C8BF0B
:101AE00008F101080134304607F1F8012A4601F0F7
:101AF000D1FF73680BB1DB6800E04B469C42DFDB33
:101B000007F58870294601F0DDFF012809D107F1AA
:101B1000C000294601F0D6FF08FB00F00AEB002ABE
:101B200006E007F1C000294601F0CCFF08FB00AA3F
:101B30000135D7F8C430002B46D0DB6845E000BF44
:101B4000600B0100680B0100700B0100800B0100AD
:101B50008C0B0100980B0100A00B0100AC0B0100E5
:101B6000BC0B01006487FF1FC80B0100D80B0100EC
:101B7000EC0B0100FC0B0100100C0100280C010013
:101B8000340C0100440C0100580C01004C96FF1F5E
:101B9000700C01007C0C0100880C01009C0C010001
:101BA000AC0C0100BC0C0100C80C0100D40C0100FD
:101BB000E40C0100F40C0100000D01000C0D01000B
:101BC000140D0100240D010000239D42FFF65BAFC0
:101BD000C7F834A0C7F840B0C7F868B03C6F14B17C
:101BE000204608F0E9FC786B042108F059FC3867BE
:101BF0003A4801F06FFD3A4801F06CFDD7F8280132
:101C000001F068FD374801F065FD374B1B68012B7B
:101C100009DD364801F05EFD334B186801F062FEC5
:101C2000334801F057FD334B4FF0000EC3F800E08E
:101C3000314BC3F800E0314BC3F800E0304BC3F840
:101C400000E0304BC3F800E02F4BC3F800E02F4B0F
:101C5000C3F800E02E4BC3F800E02E4BC3F800E0C1
:101C60002D4BC3F800E02D4BC3F800E02C4BC3F81C
:101C700000E04FF47A73FC6903FB04F37B600024FB
:101C8000FC6601F085B801F0C7FC88B12548012148
:101C900001F0C2FEB0F1FF3F0AD13C6A013C7C6515
:101CA000BC6C013CFC65104B1B68FB663C6DFC6426
:101CB0001D4B4FF0000EC3F800E01C4BC3F800E0D2
:101CC0001B4BC3F800E01B4BC3F800E00024DFF817
:101CD00068B0054ED7F86C9084E200BF2C0D01006F
:101CE000300D0100400D01006487FF1F440D01000D
:101CF0009C0901002496FF1F1096FF1F2096FF1FCE
:101D00000C96FF1FAC95FF1F0496FF1F0896FF1F40
:101D1000F095FF1FA895FF1FFC95FF1FF495FF1F6F
:101D20000096FF1F4C080100EC95FF1FE895FF1F70
:101D3000A495FF1FE495FF1F500D010007F5755096
:101D4000203007F58471224601F0A4FE07F5755096
:101D50002030012101F0B6FE50BB07F57550383038
:101D600007F58471224601F095FE07F5755038306D
:101D7000002101F0B1FE014607F57550283005F04D
:101D8000F1FE07F575502830594605F035FF054638
:101D900007F57550283005F099FE4DB10120FEF78A
:101DA00037FF3368013B4B4502D1CF4801F092FC2D
:101DB00007F5765007F58471224601F06BFE07F5B2
:101DC0007650012101F07EFE002855D107F57650AE
:101DD000183007F58471224601F05CFE07F5765055
:101DE0001830002101F078FE014607F576500830E2
:101DF00005F0B8FE07F576500830BC4905F0FCFE4A
:101E0000054607F57650083005F060FE002D33D00A
:101E10000020FEF7FDFE3368013B4B452CD1B44852
:101E200001F058FCB34B1868022101F039FDB24DA6
:101E3000284601F04FFCB14801F04CFCB04B18684B
:101E4000022101F02DFD284601F044FCAD4801F0CF
:101E500041FCAD4B1868022101F022FD284601F03B
:101E600039FCAA4801F036FCA94B1868022101F0A0
:101E700017FD284601F02EFC07F57650203007F5B7
:101E80008471224601F006FE07F5765020300121CC
:101E900001F018FE002842D107F57650383007F5DA
:101EA0008471224601F0F6FD07F5765038300021A6
:101EB00001F012FE014607F57650283005F052FE7B
:101EC00007F576502830934905F096FE054607F54C
:101ED0007650283005F0FAFD0DB307F5775007F579
:101EE0008471224601F0D6FD07F57750022101F0FA
:101EF000E9FDC5B22846002104F0D6F8284603F0D3
:101F000011FD05463368013B4B4508D1824801F07D
:101F1000E1FB284601F0E6FC774801F0DBFB07F522
:101F20007750083007F58471224601F0B3FD07F5BC
:101F300077500830012101F0C5FD002844D107F594
:101F40007750203007F58471224601F0A3FD07F594
:101F500077502030002101F0BFFD014607F5775092
:101F6000103005F0FFFD07F5775010306B4905F094
:101F700043FE054607F57750103005F0A7FD1DB369
:101F800007F57750283007F58471224601F082FD6D
:101F900007F577502830022101F094FDC5B228469C
:101FA000002104F081F8284604F070F805463368F3
:101FB000013B4B4508D15A4801F08CFB284601F003
:101FC00091FC4D4801F086FB07F57750303007F55E
:101FD0008471224601F05EFD07F577503030012113
:101FE00001F070FD00284FD107F57850083007F553
:101FF0008471224601F04EFD07F57850083000212B
:1020000001F06AFD014607F57750383005F0AAFD6A
:1020100007F577503830434905F0EEFD054607F5E2
:102020007750383005F052FD75B307F57850103011
:1020300007F58471224601F02DFD07F57850103028
:10204000022101F03FFD054607F57850183007F5ED
:102050008471224601F01EFD07F5785018300321E7
:1020600001F030FD8046E8B2012104F01DF818F0BF
:10207000FF0FEDB22C4B53F835304FF0010214BF77
:1020800083F8802083F8002107F57850203007F589
:102090008471224601F0FEFC07F5785020300121C2
:1020A00001F010FD002840F09C8007F57850383092
:1020B00007F58471224601F0EDFC07F578503830C1
:1020C000002101F009FD014607F57850283005F0A0
:1020D00049FD07F578502830144905F08DFD054677
:1020E00007F57850283023E0600D0100740D0100E1
:1020F000880D0100AC95FF1F9C090100A00D010097
:102100000496FF1FA80D01000896FF1FB00D0100E7
:10211000F095FF1FB80D0100C40D0100D40D0100A2
:10212000E40D0100F40D010000100100040E010097
:1021300005F0CCFC002D54D007F5795007F58471DB
:10214000224601F0A7FC07F57950022101F0BAFC04
:10215000054607F57950083007F58471224601F0ED
:1021600099FC07F579500830032101F0ABFCC7F862
:10217000940007F57950103007F58471224601F07C
:1021800089FC07F579501030042101F09BFC824650
:1021900007F57950183007F58471224601F07AFC72
:1021A00007F579501830052101F08CFC8046EDB21E
:1021B0002846012103F078FF504607F03FFC014616
:1021C000284603F09FFE2846D7F8941003F08EFFB0
:1021D000404604F0A5F82846002103F087FF01F0EF
:1021E0007FF80134D7F80C310BB1DB6800E0002335
:1021F0009C42FFF6A3ADBC6E002C40F3C7870024C1
:10220000C7F89440BC6ABC63BC650024FC633C66B0
:102210007C62C7F88440A246C7F89040DFF8DC93A0
:102220005546A346C7F880D0BBF1000F7BD107F518
:1022300079542034204607F1F8012A4601F02AFC9F
:1022400063681BB1DB68C7F88C3002E00024C7F874
:102250008C40002307F5A4701A5807F5CC715A502A
:102260000433282BF8D10026344607F5795028305E
:1022700007F1D8012A4601F00DFC07F57950283006
:10228000214601F01FFC07F5A473985107F579501A
:10229000303007F1E0012A4601F0FCFB07F57950E8
:1022A0003030214601F00EFC07F5B8739851013427
:1022B00004360A2CD9D1002D00F02B87BC4B1E8888
:1022C00007F1C800294601F0FDFB044607F1D000E4
:1022D000294601F0F7FB80B2DFF8D4E2AEF8000047
:1022E000396E8C420ED10BE03C6E04EB44021201BD
:1022F000B048B149013A05F0A3FB0124BC671FE0D7
:10230000864213D0631EDFF8F8E2734512D804EB5F
:1023100044021201A748A849013A05F091FB3C6626
:102320000124BC670CE00024BC6709E03C66012482
:10233000BC6705E03C660124BC6701E00124BC6782
:1023400007F1B000294601F0BDFB1FFA80FA07F53E
:102350007950383007F1F8012A4601F09BFBD7F895
:1023600090E0D7F88C30BEFBF3F403FB14E407F5E0
:1023700079503830214601F0A5FB904B187007F5D5
:102380007A5007F1E8012A4601F084FB07F57A50FC
:10239000214601F097FB804607F57A50083007F197
:1023A000F0012A4601F076FB07F57A500830214605
:1023B00001F088FBF86707F57A50103007F1B80193
:1023C0002A4601F067FB07F57A501030214601F0EC
:1023D00079FBC7F8880086B2BAF1000F08BF4FF04A
:1023E0000B0A002E00F0B3864FEA5A0AD7F88C4049
:1023F0005C4540F32881BBF1000F40F00F8107F5E9
:102400007A50183007F580712A4601F043FB07F532
:102410007A501830002101F05FFB014607F59C70EF
:1024200005F0A0FB07F59C70654905F0E5FB002869
:1024300040F0F080FC6E002C00F09186EAE06148EC
:1024400001F048F901247C625F4801F043F9D7F8B4
:10245000380101F03FF95D4C204601F03BF95C4842
:1024600001F038F907F57A50203007F580712A46D7
:1024700001F010FB07F57A502030012101F02CFB10
:1024800001F028F9204601F025F907F59C70514923
:1024900005F0B2FB18B1504801F01CF982E007F5D5
:1024A0009C704E4905F0A8FBE0B1424805F0E0FA07
:1024B00000244B48214601F0AFFAB0F1FF3FF8D1BC
:1024C000484801F007F93C6E631EDFF834E17345BC
:1024D00068D804EB4402120136483749013A05F046
:1024E000AFFA5FE007F59C703F4905F085FB0028D7
:1024F00030D0304805F0BCFA00243948214601F0BC
:102500008BFA012811D1394801F0E4F8BC6C013C88
:10251000FC653C6D013CFC64354B1B68FB663C6C08
:10252000C7F894407C6C7C6505E0B0F1FF3FE4D1D6
:102530002C4801F0CFF83C6E631EDFF8C4E0734511
:1025400030D804EB440212011A481B49013A05F045
:1025500077FA27E007F59C70264905F04DFB08B394
:10256000144805F085FA07F5E0701D490022642340
:1025700001F012FA164801F0ADF807F5E07001F02D
:10258000A9F81D4801F0A6F83C6E631EDFF870E064
:10259000734507D804EB4402120106480649013A84
:1025A00005F04EFAD7F8C43063B3DB682BE000BF08
:1025B0004096FF1F2C96FF1F690D00004896FF1FD5
:1025C0002C0A0100140E0100200E0100400D010034
:1025D000240E0100280E01002C0E0100300E010017
:1025E0004C080100380E0100400E0100480E0100A9
:1025F0006487FF1F540E01005C0E01002896FF1F28
:10260000575555050023013B9D4214BF96489748F6
:1026100001F060F807F59C7005F058FA944B1878B3
:102620001FFA88F1FEF788F9FEF7AAF9002407F5EA
:10263000A47858F8040007F5B8731959FEF77CF927
:102640000434282CF5D100F0E7FFA0B1894801211E
:1026500001F0E2F9B0F1FF3F0DD1BC6C013CFC652B
:102660003C6D013CFC64844B1B68FB663C6CC7F80A
:1026700094407C6C7C65D0464FEA4A0A0AF1080314
:1026800023F00703ADEB030D02ACADEB030D0DF131
:10269000080EC7F874E099F8003013F0FF0FFAD075
:1026A0006EB1F96F88B2D7F888309AB2CDF8008051
:1026B00001382146013A7B6FFEF770F803E02046AF
:1026C0004146FDF7B3FF62B61023DFF8CCE1CEF848
:1026D00000304023CEF80030796E01290DD14FEA49
:1026E0005A00BAF1000F08D040000023E15A07F564
:1026F0004572995202338342F8D1204641464FF049
:102700007C5200F047FE07F095F95C4B1860AEB1C3
:10271000786F41464FF07C5200F03CFE07F08AF99A
:10272000574B1860FC6B002C40F01F85534B1B6807
:10273000BB63B8650124FC6300F017BDBC6F3CB3FC
:1027400007F5E47E07F5CA73AEF10C014D4E4E4C11
:10275000012053F8042F22B1A25C56F8322082F8EF
:1027600000018B42F5D1FEF70BF907F5A47407F5CC
:10277000A27304F12401434E434C012053F8042F6B
:1027800022B1A25C56F8322082F880008B42F5D14B
:10279000374B1B789BB1D7F88440D7F870E05EF8D0
:1027A000240007F047F9354B196807F093F807F054
:1027B00085FB396F41F824000134C7F8844072B6B4
:1027C000002389F800300BF1010B62B6D7F8904076
:1027D0000134C7F8904007F1C000294601F072F9B2
:1027E000064607F57A542834204607F1F8012A46B0
:1027F00001F050F963680BB1DB6800E0002303FBD4
:1028000006F6B34504BF01354FF0000BD7F8804002
:10281000A546D7F894400134C7F89440D7F868E04B
:102820007445FFF6FFAC00F0B1BC53F8042F8242B0
:1028300004D0AA5C56F8322082F800418B42F4D1D1
:10284000124B1A780F4B53F83230012283F80021D3
:102850000F4805F00DF900240E4B1C70DFF83CB05A
:10286000054ED7F86C9075E29C090100600E0100DE
:102870004896FF1F4C0801006487FF1F1C96FF1F2E
:102880004496FF1F00100100400801004C96FF1FF6
:102890002C96FF1F2896FF1FC4F00F40500D01001B
:1028A00007F57A50303007F58471224601F0F2F8CE
:1028B00007F57A503030012101F004F901282AD1BE
:1028C00007F57B50083007F58471224601F0E2F8E5
:1028D00007F57B500830002101F0FEF8014607F5AE
:1028E0007A50383005F03EF907F57A5038305946BD
:1028F00005F082F9054607F57A50383005F0E6F81C
:102900004DB10120FEF784F93368013B4B4502D1FC
:10291000D14800F0DFFE07F57B50103007F58471D9
:10292000224601F0B7F807F57B501030012101F085
:10293000C9F8012855D107F57B50283007F5847177
:10294000224601F0A7F807F57B502830002101F05E
:10295000C3F8014607F57B50183005F003F907F579
:102960007B501830BD4905F047F9054607F57B5007
:10297000183005F0ABF8002D33D00020FEF748F9F1
:102980003368013B4B452CD1B54800F0A3FEB54B55
:102990001868022100F084FFB34D284600F09AFE2B
:1029A000B24800F097FEB24B1868022100F078FFA1
:1029B000284600F08FFEAF4800F08CFEAE4B186842
:1029C000022100F06DFF284600F084FEAB4800F0C5
:1029D00081FEAB4B1868022100F062FF284600F030
:1029E00079FE07F57B50303007F58471224601F0FF
:1029F00051F807F57B503030012101F063F80128D0
:102A000044D107F57C50083007F58471224601F067
:102A100041F807F57C500830002101F05DF80146CF
:102A200007F57B50383005F09DF807F57B503830BE
:102A3000944905F0E1F8054607F57B50383005F07C
:102A400045F81DB307F57C50103007F58471224618
:102A500001F020F807F57C501030022101F032F827
:102A6000C5B22846002103F01FFB284602F05AFF9A
:102A700005463368013B4B4508D1834800F02AFEE8
:102A8000284600F02FFF784800F024FE07F57C5020
:102A9000183007F58471224600F0FCFF07F57C50E2
:102AA0001830012101F00EF8012844D107F57C50BF
:102AB000303007F58471224600F0ECFF07F57C50BA
:102AC0003030002101F008F8014607F57C50203035
:102AD00005F048F807F57C5020306C4905F08CF87B
:102AE000054607F57C50203004F0F0FF1DB307F5D4
:102AF0007C50383007F58471224600F0CBFF07F593
:102B00007C503830022100F0DDFFC5B2284600219C
:102B100003F0CAFA284603F0B9FA05463368013BC8
:102B20004B4508D15A4800F0D5FD284600F0DAFEA2
:102B30004D4800F0CFFD07F57D5007F58471224622
:102B400000F0A8FF07F57D50012100F0BBFF012830
:102B50004FD107F57D50183007F58471224600F0FB
:102B600099FF07F57D501830002100F0B5FF0146B0
:102B700007F57D50083004F0F5FF07F57D5008306B
:102B8000444905F039F8054607F57D50083004F052
:102B90009DFF75B307F57D50203007F584712246FF
:102BA00000F078FF07F57D502030022100F08AFF09
:102BB000054607F57D50283007F58471224600F060
:102BC00069FF07F57D502830032100F07BFF804628
:102BD000E8B2012103F068FA18F0FF0FEDB22E4BB6
:102BE00053F835304FF0010214BF83F8802083F88A
:102BF000002107F57D50303007F58471224600F042
:102C000049FF07F57D503030012100F05BFF0128BE
:102C100040F09F8007F57E50083007F5847122460A
:102C200000F038FF07F57E500830002100F054FF17
:102C3000014607F57D50383004F094FF07F57D50CC
:102C40003830164904F0D8FF054607F57D50383076
:102C500004F03CFF24E000BF600D0100740D010092
:102C6000880D0100AC95FF1F9C090100A00D01001B
:102C70000496FF1FA80D01000896FF1FB00D01006C
:102C8000F095FF1FB80D0100C40D0100D40D010027
:102C9000E40D0100F40D010000100100040E01001C
:102CA000002D56D007F57E50103007F5847122466E
:102CB00000F0F0FE07F57E501030022100F002FF18
:102CC000054607F57E50183007F58471224600F05E
:102CD000E1FE07F57E501830032100F0F3FEC7F83F
:102CE000940007F57E50203007F58471224600F0ED
:102CF000D1FE07F57E502030042100F0E3FE82462D
:102D000007F57E50283007F58471224600F0C2FE98
:102D100007F57E502830052100F0D4FE8046EDB244
:102D20002846012103F0C0F9504606F087FE01460F
:102D3000284603F0E7F82846D7F8941003F0D6F9B0
:102D4000404603F0EDFA2846002103F0CFF900F0E9
:102D5000C7FA0134D7F80C310BB1DB6800E000236F
:102D60009C42FFF69DADFC6E0134FC66B44B1B68C3
:102D70009C420DDAFC69002C03DDB248796800F052
:102D80004BFEBC69002C03DDAE48214600F044FE3A
:102D9000AB4B1B68FC6E9C42FEF675AFD7F854B087
:102DA00007F5A47E07F58C7307F1A80292E80300EB
:102DB00083E80300AEF1280307F1A00292E80300C4
:102DC00083E8030011B1D1F80CA001E04FF0000A34
:102DD000D7F81C3113B1D3F80C9001E04FF0000983
:102DE000BAF1000F3DDD002607F57F5007F5907121
:102DF000324600F04FFE07F57F50002100F062FEE2
:102E0000804607F57E50383007F59071324600F065
:102E100041FE07F57E503830012100F049FE04469E
:102E20000D46B8F1310F16D8DFF820E2DEF8003099
:102E300003EB8808D8F85C0206F0C0F902460B469E
:102E40002046294606F076FC28B92046294606F099
:102E5000EBFCC8F85C02012003F062FA013656452B
:102E6000C2D1B9F1000F26DD774800F033FC002411
:102E7000DFF82482754E07F58C70214600F022FEA3
:102E8000054631280CD8336803EB8003D3F85C0285
:102E900006F094F902460B464046294600F07CFCB9
:102EA00009F1FF339C4214BF69486A4800F012FCE4
:102EB00001344C45DFD1684B1B78002B45D1674866
:102EC00000F008FC7C6E34B107F21236002425466F
:102ED000DFF87C812FE07C6B002C33DD3C6F251FFD
:102EE0000024DFF85C81D7F834E00EF1FF36DFF81C
:102EF000609155F8040FD8F80030B0FBF3F000F003
:102F000001FDA64202D0484600F0E4FB0134796B93
:102F10008C42EED116E036F8020F00F0E3FC07F128
:102F2000B000294600F0CEFD0138844202D0404670
:102F300000F0D0FB013407F1B000294600F0C2FDDB
:102F40008442E8DB464800F0C5FB3C6A621E5A45F5
:102F500004DC3C6D631EFC6CA34214DD3C4800F0B5
:102F6000B9FB7C69002C06DD36484FF47A7101FB11
:102F700004F100F051FD3C69002C0CDD3148214684
:102F800000F04AFD07E0934505D1FC6C9C4202D15C
:102F9000344800F09FFB0122294B1A6007F5A47EFC
:102FA00007F5A2730EF12401002243F8042F8B428F
:102FB000FBD12D4B00241C602C4B1C602C4B1C6047
:102FC0002C4B1C602C4B1C602C4B1C602C4B1C6035
:102FD0002C4B1C602C4B1C602C4B1C602C4B1C6025
:102FE0002C4B1B68FB6200221B4B1A7007F5947078
:102FF00004F06CFDFC6C0134FC64D7F850E0A6458D
:103000003EF756AC7C6D01347C65D7F820E0744502
:10301000FEF6D3ABBC68FD6800F026FBB96C4B1E16
:10302000FA6D93423FDD0A4800F054FBB4B3054803
:103030004FF47A7101FB04F100F0EEFC33E000BFC5
:103040006487FF1F4C080100640E01006887FF1FA2
:103050009C090100780E01001496FF1F7C0E0100F0
:103060008C0E01003C0E01002096FF1F0C96FF1FE6
:103070001896FF1FAC95FF1F0496FF1F0896FF1FB1
:10308000F095FF1FA895FF1FFC95FF1FF495FF1FEC
:103090000096FF1F4C96FF1F700E01001DB14548A2
:1030A000294600F0B9FCFB6D0133FB65D7F848E019
:1030B0007345FEF679AB404800F00CFB00F060FC75
:1030C00000223E4B1A603C6F14B1204607F074FAA0
:1030D000386B07F071FA07F5417407F5057520465E
:1030E00004F0F4FC103CAC42F9D15CE0204604F062
:1030F000EDFC103CAC42F9D155E0314800F0EAFA61
:103100000024304DFEF798BB07F5417407F50575AF
:10311000ECE707F1C800002100F0D4FC386607F1A5
:10312000D000002100F0CEFC274A1080FC6AE2B2F9
:10313000264B53F83230012283F800213C6E631E87
:10314000DFF894E073453FF6F9A8FFF7CDB8FC6FC0
:10315000A0B201380021FDF785F9FFF747B97C6A75
:10316000002C7FF471A9FFF76AB9194CB96D06F00C
:10317000AFFBB96B06F0B6FCB96D06F067FD014612
:10318000206806F0A5FB2060FFF7D8BA0B4B186843
:1031900007F5A47E07F5A2730EF124010B4E0D4D29
:1031A0000124FFF742BB07F57F570C37BD46BDE84A
:1031B000F08F00BF4C0801008C0E01004C96FF1FE1
:1031C000900E0100803801004096FF1F00100100A2
:1031D0001C96FF1F400801005755550508B50548C6
:1031E00000230370802343730349044A07F046F920
:1031F00008BD00BF2C96FF1F5D0D00006087FF1FFC
:1032000003880888834205D0834294BF4FF0FF3083
:10321000012070470020704770B586B04FF4FA70F7
:1032200003F07EF8042000F0F9FA4FF4614000F05A
:10323000D9FA254B1869597B002300930193012289
:1032400002920324039404921A4601F09BFB02F0BD
:1032500011FAFDF7ABFB1D4C04F10A06012514F829
:10326000010F294602F020FFB442F8D123200021AB
:1032700002F01AFF0220002102F016FF2420002194
:1032800002F012FF1C20012102F00EFF4FF48072A9
:103290000F4B1A600620012102F006FF0D4C10238F
:1032A00023601520012102F0FFFE4023236020202F
:1032B000012102F0F9FE084800F00CFA074800F07E
:1032C00031FB06B070BD00BF0097FF1FF40E010078
:1032D00084F00F40C4F00F40740801008008010022
:1032E00010B5074C0520214602F00CFE03202146B4
:1032F00002F008FE1920034902F004FE10BD00BFD1
:10330000001B3748D723F44330B583B004461C4B29
:103310001B681A689B8800931A481B491B4B00F0D6
:103320003BFA00F02DFB012C27D1154C25681848DD
:10333000002100F071FB286023681A68904218BFD2
:103340001860012002F0ECFF1148002100F064FB3E
:103350000B4B1B689A88824218BF9880012002F0AC
:10336000DFFF074B1B681A689B88009305480649D6
:10337000064B00F011FA00F003FB03B030BD00BFB4
:103380006887FF1F000F010074080100480B01004F
:103390004C08010070B504460E4615460222084B43
:1033A00007F05CFC304606F049FB294606F09AFB24
:1033B00005F03AFC06F05CFD34F8100070BD00BF6B
:1033C000013200002DE9F04F87B0002905913DDD65
:1033D000824600EB410B0024002526462F46A046DE
:1033E000A946204629460022224B05F089FD0446C5
:1033F0000D463AF8020B05F0CFFECDE9000142463A
:103400004B4605F07BFDCDE9020122462B4606F036
:1034100053F802460B464046494605F071FD80468A
:103420008946DDE9000142464B4605F067FDDDE9CE
:10343000022305F017FF02460B463046394605F0D9
:103440005FFD06460F46DA45CBD101E00026002796
:10345000059B5C1E204605F09FFE02460B4630464B
:10346000394606F029F805F005FC06F0DDF907B04D
:10347000BDE8F08F0000F03F70B50646037833B327
:103480000246002425465B3B222B1AD8DFE803F0D6
:1034900012191419191919191919191919191919A8
:1034A000191919191919191919191919191919198C
:1034B00016191800013504E0013D02E0013400E076
:1034C000013C12F8013F002BDDD1F5B9FCB93046C3
:1034D0007D2108F039FB0446D8B1407807F05AF84E
:1034E000C8B100F0A3FD01343046A11B00F0ACFDD3
:1034F00000F0A4FD00F072FD2146082208F098FAC1
:10350000D0F1010038BF002070BD002070BD002048
:1035100070BD002070BD012070BD00BF704700BFAE
:10352000024B1A68024B1A60704700BFBC97FF1F1E
:10353000B896FF1F08B5054800F00EFD044800F0DE
:103540000BFD044B1A68044B1A6008BD5096FF1F10
:103550008496FF1FBC97FF1FB896FF1F2DE9F0410F
:10356000441E114D114EDFF8488017E02A68B3540D
:10357000531C2B60142B11D100273775304608F0EF
:1035800027FA0246D8F800305B6840463146984733
:1035900003F002F9142002F0C3FE2F6014F8013F7B
:1035A000002BE3D1BDE8F081DC96FF1FC096FF1F22
:1035B0004899FF1F70B5134C134D144E237813F028
:1035C000FF0F10D02B7813F0030F0CD03268104B84
:1035D0001B68D31A182B10D805E000220D4B1A6077
:1035E00003F00AFF70BD03F0F9F80028E6D00122CD
:1035F000084B1A6003F002F970BD03F049FF002880
:10360000F1D0EAE73499FF1F4499FF1FBC97FF1FD1
:10361000E49AFF1FBC96FF1F10B50F4B1B7813F0E9
:10362000FF0F0DD00D4B1B7813F0030F0AD00C4B7E
:103630001A680C4B1B68D31A182B08D8002402E018
:10364000002400E0002403F0C9F8204410BD03F07A
:103650001FFF0446F7E700BF3499FF1F4499FF1F7F
:10366000BC97FF1FE49AFF1F08B501E0FFF7A2FF18
:10367000FFF7D2FF0028F9D108BD00BF08B5114BF4
:103680001B7813F0FF0F0FD00F4B1B7813F0030FB5
:103690000AD00E4B1A680E4B1B68D31A182B0CD885
:1036A00002E003F0D5FE08BD03F098F810B103F076
:1036B000DFF808BD4FF0FF3008BD03F0E9FE002839
:1036C000EFD1F1E73499FF1F4499FF1FBC97FF1F0B
:1036D000E49AFF1F38B50446274B1B68BBB1274B44
:1036E0001B688BB9264B1B7813F0FF0F28D0254B96
:1036F0001B7813F0030F23D0234B1A68234B1B684E
:10370000D31A182B20D81BE0FFF728FF18E01C4B1A
:103710001B7813F0FF0F0BD01A4B1B7813F0030F1D
:1037200006D0194B1A68194B1B68D31A182B14D8DA
:10373000174B1B6813F0020F02D02046FFF70EFF55
:10374000204600F09FFC38BD08F042F902461148BF
:1037500001684D682146A847F2E70D4B1B6813F03E
:10376000010FE5D008F034F902460A4801684D68B7
:103770002146A847DCE700BFD896FF1FBC96FF1F75
:103780003499FF1F4499FF1FBC97FF1FE49AFF1F46
:103790006C87FF1F7499FF1F0FB400B5B5B036AB2F
:1037A00053F8042B009301A8C8210AF017FD01A8C3
:1037B00008F00EF9C72805D9084809494022FFF743
:1037C000EBFFFEE700238DF8CC3001A8FFF782FF66
:1037D00035B05DF804EB04B0704700BFE0060100AF
:1037E000580F010008B5A0F51652094B9A4205D9A9
:1037F000084809491A22FFF7CFFFFEE7430803F103
:10380000376303F5D833B3FBF0F002F0F9FD08BDE0
:10381000809C0100E0060100580F010008B5431E1E
:10382000032B05D90A480B492B22FFF7B5FFFEE70A
:10383000042806D10122084B1A600322074B1A60A4
:1038400008BD0022044B1A60044B186008BD00BF7D
:10385000E0060100580F0100D896FF1F6C87FF1F7C
:1038600070B50C4B1B68002B12DD0B4C0025E5548A
:10387000204608F0ADF80246084801684E68214627
:10388000B04702F089FF142002F04AFD014B1D6091
:1038900070BD00BFDC96FF1FC096FF1F4899FF1F39
:1038A00010B588B00C4605F089FCCDE9000102A8EE
:1038B0000949224607F080FE02A808F089F813287B
:1038C00005D906480649BD22FFF766FFFEE702A8B4
:1038D000FFF700FF08B010BD9C0F0100E0060100DB
:1038E000580F010000B587B0024601A8044907F04F
:1038F00063FE01A8FFF7EEFE07B05DF804FB00BF12
:10390000A40F010000B587B0024601A8044907F0E2
:1039100053FE01A8FFF7DEFE07B05DF804FB00BF11
:10392000A80F010008B5FFF7D5FE0248FFF7D2FE49
:1039300008BD00BFC409010010B588B00C4605F0F1
:103940003DFCCDE9000102A80A49224607F034FEF9
:1039500002A808F03DF8132806D90748074940F2A5
:103960000F12FFF719FFFEE702A8FFF7DBFF08B011
:1039700010BD00BF9C0F0100E0060100580F0100C0
:1039800008B500F05BFB00F029FBFFF7CBFFFFF76A
:1039900067FF00F04BFB08BD2DE9F84F80468A46D3
:1039A00014469946134B1E6800271D46FFF766FE16
:1039B0001CB12B689B1B9C4215D3B0F1FF3FF5D087
:1039C000FFF7F8FD5FFA80FB5046594607F01AFEF4
:1039D00048B9013708EB070303F801BCB9F1000F40
:1039E000E4D04F45E2D3002308F807304046BDE855
:1039F000F88F00BFBC97FF1F00B589B003460A4689
:103A000001A819461823FFF7C7FF01A806F03CFDDF
:103A100009B05DF804FB00BF00B589B003460A4653
:103A200001A819461823FFF7B7FF01A806F034FDD7
:103A300009B05DF804FB00BF0160426012B1137869
:103A4000022B02D0002303604360704770B50E461E
:103A50000368ABB14068E0B1002913DBC368994249
:103A600012DA00F11004002910DD0025204600F0D4
:103A70009BF8013004EB00140135B542F6D107E0A4
:103A8000002070BD002070BD002070BD204670BDBC
:103A9000204670BD38B5044608460D681146FFF74C
:103AA000D5FF024620462946FFF7C6FF204638BD0F
:103AB00010B50446FFF7CAFF0146204600F084F81F
:103AC00010BD00BF10B50446FFF7C0FF01462046F9
:103AD00000F08CF810BD00BF10B50446FFF7B6FF2C
:103AE0000146204600F092F810BD00BF0160426020
:103AF00012B11378012B02D000230360436070479A
:103B0000F8B506460F46036823B3406848B319B3B7
:103B100000F11004C368012B20DD0025304621464A
:103B200000F074F80146384607F0E6FD10B904F1DC
:103B30001000F8BD04F1100000F036F8023004EB7C
:103B4000001401357368DB6803EBD373B5EB630FC7
:103B5000E4DB05E00020F8BD0020F8BD0020F8BD42
:103B60000020F8BD38B5044608460D681146FFF739
:103B7000C7FF024620462946FFF75EFF204638BDB4
:103B800010B50446FFF7BCFF0146204600F02EF8B2
:103B900010BD00BF10B50446FFF7B2FF0146204636
:103BA00000F034F810BD00BF816800F110034269D5
:103BB000914206DD0020013010335A689142FADC50
:103BC00070470020704700BF08B541B10A784AB974
:103BD00000684B681844002108F08AFF08BD0020E7
:103BE000002108BD0020002108BD00BF08B549B173
:103BF0000A784AB900684B68184400210A4609F05F
:103C000009F808BD002008BD002008BD10B40B460F
:103C100061B10A78012A01D9032A09D101689A6899
:103C200000248C5400685B68184402E0002000E027
:103C300000205DF8044B70472DE9F00F9B460668A5
:103C40008C5D002C00F050814FF0FF3C4FF00008DD
:103C5000C1F101072C2C00F040810ED80D2C00F092
:103C60003C8104D8093C012C00F2EE8035E1202C87
:103C700000F03381222C76D0E6E05D2C32D005D8DE
:103C80003A2C00F02A815B2C05D0DDE07B2C02D0A1
:103C90007D2C27D0D8E043689B4540F23A815D1CDB
:103CA00045601E019319C3F808C0C3F804C0C3F8E7
:103CB0000C80002B00F02F818568B5F1FF3F06D006
:103CC00002EB0519D9F80C500135C9F80C507B2CC2
:103CD00014BF02240124945504685C604368013BCE
:103CE0008360FAE07D2C14BF4FF0020A4FF0010A06
:103CF0004468631E00F1208102EB0414A4F1100952
:103D000054F80C5CB5F1FF3F12D054F8085CB5F1E3
:103D1000FF3F0DD114F8104C544540F0FE80C0F820
:103D200008C00136C9F80860B3F1FF3F06D1F6E0DC
:103D3000013B103CB3F1FF3FE0D1F2E0002BC0F2B9
:103D4000CC8002EB03146568B5F1FF3F05D0A56890
:103D5000B5F1FF3F01D18360BFE0013B103CB3F1FF
:103D6000FF3FF0D1B9E0741C04600B5D002B62D002
:103D7000222B23D101E0222B20D143689B450AD975
:103D80005C1C44601C011319C3F808C0C3F804C0CC
:103D9000C3F80C8013B90660FF23CBE0D0F8009085
:103DA0004FF00305155501365E60C3F80890C3F85F
:103DB0000C808368B3F1FF3F40D18EE05C2B34D19F
:103DC000013404600B5D223B532B2BD8DFE803F05A
:103DD0002D2A2A2A2A2A2A2A2A2A2A2A2A2D2A2A3D
:103DE0002A2A2A2A2A2A2A2A2A2A2A2A2A2A2A2A33
:103DF0002A2A2A2A2A2A2A2A2A2A2A2A2A2A2A2A23
:103E00002A2A2A2A2A2A2A2A2A2A2D2A2A2A2A2A0F
:103E10002D2A2A2A2D2A2A2A2A2A2A2A2D2A2A2AF9
:103E20002D2A2D2D0660FE2384E0046801340460F1
:103E30000B5D002B9FD10660FD237BE002EB03139B
:103E4000DC680134DC6048E00368CC18CB5C03B369
:103E5000202B1ED006D8092B0ED30A2B19D90D2BD7
:103E60000AD116E03A2B14D002D82C2B04D110E042
:103E70005D2B0ED07D2B0CD0203BDBB25E2B02D90C
:103E80000660FE2356E03B19036014F8013F002B47
:103E9000DED143689B450AD95C1C44601C011319A0
:103EA000C3F808C0C3F804C0C3F80C8013B9066097
:103EB000FF233FE0056802F804805E609D60C3F860
:103EC0000C800368013B03608368B3F1FF3F04D0BB
:103ED00002EB0313DC680134DC600668013606601F
:103EE0008C5D002C7FF4B6AE41684B1E1BD402EBF8
:103EF000011252F80C1CB1F1FF3F04D052F8081C1B
:103F0000B1F1FF3F11D0013B103AB3F1FF3FF0D1C7
:103F10000DE0FF230EE0FF230CE0FE230AE0FE236A
:103F200008E0FE2306E0002304E0FD2302E0002376
:103F300000E0FE2358B203E0B3F1FF3FCDD1F8E734
:103F4000BDE8F00F704700BF0023036043604FF0EF
:103F5000FF338360704700BFFF2202734273827396
:103F6000C273704710B5044661F05F010170836849
:103F70000079012122469847E368207902212246F0
:103F800098476078237843EA002010BD08B5C378CD
:103F90001BB11421FFF7E6FF08BD002008BD00BFDC
:103FA00008B5C3781BB11621FFF7DCFF08BD002060
:103FB00008BD00BF08B5C3781BB11821FFF7D2FFB9
:103FC00008BD002008BD00BF08B5C3781BB11A2189
:103FD000FFF7C8FF08BD002008BD00BF114B124A03
:103FE000010F515C1970C0F30361515C5970C0F34B
:103FF0000351515C9970C0F30341515CD970C0F317
:104000000331515C1971C0F30321515C5971C0F344
:104010000311515C997100F00F00125CDA711846BF
:10402000704700BFE096FF1FB00F01004FF0FF3256
:10403000014B1A60704700BF7087FF1F014B186863
:10404000C04370477087FF1F70B4002914DD0B4B0D
:104050001A68044646180825094814F8013B5A40D6
:104060002B4642F30001014081EA5202013BF8D1A4
:10407000B442F2D1014B1A6070BC70477087FF1FC9
:104080002083B8ED30B4037893B10A4A126808254A
:10409000094C5A402B4642F30001214081EA52026A
:1040A000013BF8D110F8013F002BF2D1014B1A600F
:1040B00030BC70477087FF1F2083B8ED417041F01E
:1040C0006001017041F288324286704730B583B09A
:1040D0000546104C2046297800F098FD2368697940
:1040E00041F08001AA7841EAC201EA7841EA8201FE
:1040F0002A7941EA42011B682046C9B298472169E2
:10410000627B002300932046012300F0F9FE03B0F8
:1041100030BD00BF0097FF1F10B58170C2700371E2
:104120009DF808304371FFF7D1FF10BD30B583B063
:104130000546104C2046297800F068FD2368697A0E
:1041400041F0C001AA7941EAC201EA7941EA82015B
:104150002A7A41EA42011B682046C9B29847216980
:10416000627B002300932046012300F0C9FE03B0C8
:1041700030BD00BF0097FF1F10B58171C27103727F
:104180009DF808304372FFF7D1FF10BD70B582B0C3
:1041900004460E48217800F039FD00250B4EE189D8
:1041A0003046090A00F026F83046A17B00F022F8DC
:1041B00002350234082DF2D104480169427B002304
:1041C0000093012300F09CFE02B070BD0097FF1F1A
:1041D00008B500EB4101CA81FFF7D8FF08BD00BF59
:1041E0000369D3F83801D3F83431C01A704700BFDF
:1041F000704700BF0369D3F84422B2F5817F09D824
:10420000D3F84422501CC3F84402134483F83C11F1
:1042100001207047012303710020704730B4036907
:10422000D3F84442B4F5817F1ED8D3F84442C4F594
:1042300081740134D3F844522B4403F59E739442A5
:1042400002D201220271224632B18D1811F8014BBF
:1042500003F8014BA942F9D10369D3F84412114480
:10426000C3F84412104602E001230371002030BC61
:10427000704700BF38B50446084B0360036993F8E4
:104280004822022A08D1D3F860522DB1284603F003
:104290004BFA284603F0D8FC204638BDD00F010069
:1042A00010B4002202714FF47A7484600273064ADB
:1042B000026041734FF41A74044A04FB0121016146
:1042C0005DF8044B704700BFD00F01007487FF1FDB
:1042D00070B504460D46C3681B7813F0200F40F0FC
:1042E0008480836880211970C3681221197090F846
:1042F0004932012B0AD022B9002380F8483201202C
:1043000070BD531EDBB2012B71D800E0012225B92C
:104310004FF08071374B196005E0012D03D14FF04C
:104320000071344B1960022A5BD1D4F860624EB937
:10433000082003F085FC0646002103F097F9C4F835
:1043400060627EB13379102B0CD1304603F0ECF96A
:10435000304603F079FC0023C4F86032012084F871
:10436000480270BD33689A8B92B2998B42F0080272
:104370009A83D4F86032204A2048002D08BF1046A6
:10438000197910311E4A42F821001A7953119B0005
:1043900003F1604303F5614302F01F02012101FABA
:1043A00002F21A60D4F860321B689A8B92B2998B31
:1043B00042F002029A83D4F86032002D1B7903F197
:1043C000804303F504334FF000021A7014BF9721A5
:1043D0009621197084F85622022384F8483201206D
:1043E00070BD012084F8480270BD002070BD01201E
:1043F00070BD00BF00E100E05155000061550000B4
:104400000082FF1F10B403469848814257D10D2AFD
:104410004DD8DFE802F0070C11161B20252A2F3497
:10442000393E434759682C200870012043E0596801
:104430002420087001203EE05968552008700120B2
:1044400039E059684F200870012034E0596819207C
:10445000087001202FE059681320087001202AE01D
:10446000596845200870012025E059680D20087022
:10447000012020E059680B20087001201BE05968DA
:1044800006200870012016E05968052008700120F8
:1044900011E059680220087001200CE059680120E1
:1044A000087008E0596800200870012003E05A688D
:1044B000002010700D22996904240C70B3E16C483F
:1044C000814253D10C2A49D8DFE802F0070C1116BB
:1044D0001B20252A2F34393E430059682C200870B0
:1044E00001203FE059682420087001203AE0596813
:1044F0001E200870012035E059684F200870012007
:1045000030E059681520087001202BE059680F2011
:104510000870012026E059680E200870012021E073
:1045200059680C20087001201CE059680A200870A6
:10453000012017E0596809200870012012E059682D
:104540000420087001200DE0596802200870012045
:1045500008E0596800200870012003E05A68002034
:1045600010700C22996904240C705CE1414881426E
:104570004DD10B2A43D8DFE802F0060B10151A1FA5
:1045800024292E33383D59682720087001203AE04D
:1045900059685A200870012035E059681C200870BD
:1045A000012030E059688520087001202BE059680F
:1045B00014200870012026E0596845200870012069
:1045C00021E059680D20087001201CE059680B207B
:1045D0000870012017E0596809200870012012E0D6
:1045E00059680320087001200DE059680220087006
:1045F000012008E0596800200870012003E05A6893
:10460000002010700B22996904240C700BE11A48E9
:1046100081424AD1092A40D8DFE802F0050A0F1486
:10462000191E2330353A596895200870012038E06A
:10463000596855200870012033E0596885200870BA
:1046400001202EE0596815200870012029E05968E2
:1046500045200870012024E059680C2008700120D2
:104660001FE059680A20087001201AE000879303B0
:10467000007E5603006CDC020051250259680520BB
:10468000087001200DE0596802200870012008E040
:10469000596800200870012003E05A68002010705B
:1046A0000922996903240C70BDE06148814237D129
:1046B000072A2DD8DFE802F004090E13181D22275F
:1046C00059681F200870012026E05968852008706D
:1046D000012021E059681420087001201CE059686D
:1046E00045200870012017E059680B200870012050
:1046F00012E059680520087001200DE05968022079
:104700000870012008E0596800200870012003E0CB
:104710005A68002010700722996902240C7082E008
:10472000444881422CD1052A22D8DFE802F0030850
:104730000D12171C59681D20087001201CE05968D3
:1047400014200870012017E05968432008700120E8
:1047500012E059680B20087001200DE05968032011
:104760000870012008E0596800200870012003E06B
:104770005A68002010700522996901240C7052E0DB
:104780002D48814221D1032A17D8DFE802F0020721
:104790000C11596814200870012012E059680B2090
:1047A000087001200DE0596803200870012008E01E
:1047B000596800200870012003E05A68002010703A
:1047C0000322996901240C702DE01C48814215D107
:1047D00012B1012A05D009E059680B2008700120A8
:1047E00008E0596800200870012003E05A680020A2
:1047F00010700122996900240C7014E01048814265
:104800000CD122B95A6800211170012002E05A68C7
:1048100000201070996900220A7004E05968002095
:1048200008709969087083F84C225DF8044B704752
:1048300000366E010024F40000127A0000093D00E9
:1048400080841E00F8B504469DF8180000284DD05D
:10485000E5682D7815F0200F44D147E0012A0ED1EC
:1048600028B1002B5AD053E0132001F01DFC012386
:1048700084F84A323F4B1D60043B1D6060E028B164
:10488000002B57D050E0102001F00EFC002384F8DC
:104890004A32394B1D60043B1D6051E0012923D190
:1048A000042A0FD128B1002B52D04BE01D2001F07B
:1048B000FBFB042384F84A32304B1E6004331E6035
:1048C0000120F8BD28B1002B4ED047E01A2001F09E
:1048D000EBFB032384F84A32294B1D60043B1D6027
:1048E0000120F8BD0020F8BD0120F8BD002B40F2EA
:1048F000032508BF4FF4197540F2036640F2646760
:10490000002B08BF3E4684F84B320029C6D1A5E7EC
:104910001220022101F0C8FB0221A5E7122000218C
:1049200001F0C2FB00219FE71120022101F0BCFB36
:104930000221A8E71120002101F0B6FB0021A2E727
:104940000120F8BD1E20022101F0AEFB0221ADE7DF
:104950001E20002101F0A8FB0021A7E71F20022153
:1049600001F0A2FB0221B1E71F20002101F09CFB16
:104970000021ABE704A004400CA0044000D0044098
:104980002CB00440F0B583B004469DF820009DF89B
:104990002C600D4629B931490F6847F040070F6078
:1049A00006E0012904D12D490F6847F080070F6008
:1049B00084F84922002184F84E123AB96369202212
:1049C0001A7022681170E269117011E062690028A2
:1049D0003CD132E05B00DBB21370E2694300DBB232
:1049E00005E04000C0B21070E2695B00DBB21370FA
:1049F00000230093204629469DF824209DF8283066
:104A0000FFF720FF94F84A32022B20460CBF1449CE
:104A100014493246FFF7F6FC204629469DF830201F
:104A2000FFF756FC94F849321BB9A36880221A702C
:104A300012E0A368C0221A700EE0202111702268D3
:104A40005B00DBB21370E2690023D0E7282111700C
:104A500022689842BED8C4E703B0F0BD3480044059
:104A600000D8B805006CDC022DE9F04F83B0824617
:104A70008B4690F84A32042B4FD8DFE803F03134EC
:104A800003060900172616242FE01E261D242CE0FD
:104A90001F261A2429E02046494601F0D3FA2B4666
:104AA000013B7FF4FDAF2046414601F0CBFA2B4697
:104AB000013B7FF4FDAF304601F0E8FA18B9013F41
:104AC00017F0FF07E7D100218AF84E129AF84A2220
:104AD0009AF84B32009150465946FFF7B3FE1CE05E
:104AE0001226132401E0112610249AF84B32002BD1
:104AF000304614BF0221002101F0D6FA20460121E0
:104B000001F0A0FA2046012101F0CEFA0B274FF068
:104B10000009A0254FF00108CDE703B0BDE8F08FF4
:104B20002DE9F843054688461646994601F0D6FB1E
:104B30000746AB681A7812F0200F0ED0B4221A7014
:104B400032E0EC68247814F0200F06D1002385F8B9
:104B50004932AB68B0221A7006E0002EF1D001F0A5
:104B6000BDFBC01B8642ECD8AB681B7813F0200F4E
:104B70000ED128464146FFF777FFEB681B7813F00C
:104B8000200F05D1002385F84932AB68B0221A7096
:104B9000AB681B7803F0200303F0FF0023B9042364
:104BA00085F84E32BDE8F88395F84832013BDBB218
:104BB000012B20D800F0AEFF124B134AB8F1000FC2
:104BC00018BF13461B78984218DC0F2804DC01201C
:104BD00089F80000BDE8F8830A4B0B4AB8F1000FD2
:104BE00014BF90469846A0F11003DBB288F800305D
:104BF0000120BDE8F8830120BDE8F8830120BDE86D
:104C0000F88300BF18E400E019E400E003694900FC
:104C100083F83C1103690122C3F844220023037185
:104C2000026982F84E3270472DE9F04383B00546A1
:104C300014461F4600238DF80730D0F84432002B6D
:104C400000F0C8800FB9D0F86472EB6812221A70B5
:104C500028463A460DF10703FFF762FF002800F0EF
:104C6000B98095F848321BB19DF80720002A54D02E
:104C700001F034FB8146012385F84E3285F84D4220
:104C800000264FF002082BE02B69AA1992F83C216C
:104C90001A70EC68217811F0020FFBD084F80080C4
:104CA000EB681978C9B211F0100F09D0072385F805
:104CB0004E32AB6880221A70EB6810221A701BE02B
:104CC00011F0010F0BD01EB9052385F84E3202E01A
:104CD000062385F84E32AB6880221A700CE001364C
:104CE000D5F844329E4207D2002FCDD001F0F6FA1B
:104CF000C9EB00008742C7D8D5F84432B3428CBF15
:104D00000423002385F84E3295F84D32012BAB6811
:104D10000CBF8022B0221A705CE05A1ED2B2012A67
:104D200058D8012285F84E2285F84D420022C5F858
:104D30004022022B14D1D5F84432042B18D80FE0AE
:104D400013689B6833B913680021012018725972E7
:104D50009972D972136800221A765A769A76DA76A0
:104D6000AB68F0221A702B6995F83C211A7031E07B
:104D7000012385F85632D5F8602205F59F70D5F8E5
:104D80004442033C11680B6800230860116801204D
:104D900008714B711168CB71116808724B728B727C
:104DA000CB7211686042C8601068C18BA1B2C18328
:104DB0001268D08AD182D5F8602229691068046906
:104DC000016110680375437510688371B1F1804FFC
:104DD000B9D3B5E703B0BDE8F08300BF036993F82A
:104DE0004E32043B042B0CD8DFE803F00910050712
:104DF00003000120704703207047042070470420FF
:104E000070470079003018BF0120704702207047BA
:104E100090F84E3213F0FF0F1BD090F84E32DBB2F9
:104E2000052B18D090F84E32DBB2062B15D090F837
:104E30004E32DBB2072B12D090F84E32DBB2042B8D
:104E40000FD090F84E02C0B2082814BF00200120F5
:104E500070470120704701207047012070470120F2
:104E600070470120704700BF70B5044615460AB967
:104E7000D0F8645201F032FA06462046FFF7C8FF28
:104E800000283AD1002DF8D001F028FA801B854285
:104E9000F3D801F023FA801B854210D894F84832E9
:104EA000022B0CD194F8563213F0FF0F07D0204696
:104EB000FFF7AEFF0028FAD0042384F84E3294F8AE
:104EC0004E32DBB2012B09D094F84E32DBB2022B0A
:104ED00004D094F84E32DBB2032B02D1042384F8C1
:104EE0004E328023013B7FF4FDAF94F84E3213F035
:104EF000FF0F14BF0020012070BD002DDFD0C8E7D8
:104F0000F8B507460E461546069C084611461A4651
:104F10002346FFF789FE304629462246FFF7A4FFC5
:104F20003846FFF75BFFF8BDD0F83421D0F83831B0
:104F30009A4208D2D0F834315A1CC0F834211844AF
:104F400090F8300070474FF0FF30704708B50069A7
:104F5000FFF7EAFF08BD00BFD0F83421D0F83831A0
:104F60009A423DBFD0F83431C01890F830004FF06D
:104F7000FF30704708B50069FFF7EEFF08BD00BFBE
:104F800038B50446C2681578EDB281680B78DBB29B
:104F900013F0200F00F0C38113F0100F00F0058113
:104FA00090F85632DBB2022B04D090F85632DBB2C6
:104FB000032B4CD1D4F860120B689B8B03F0800359
:104FC0009BB2002B00F0808294F85632DBB2022BA9
:104FD00040F07A826EE2137813F0800FFBD00A79EA
:104FE000B54B1A70002384F85632D4F84432013B92
:104FF000C4F840322369D4F84022224492F83C217C
:105000001A7020E0AD4B1A680B79012199401142CA
:1050100019D0AB4A1370D4F860321A79A94B1A70C0
:10502000002384F8563215F0100F0CD0072384F8B3
:105030004E32A36880221A70E36812221A7000238D
:10504000C4F8403238BDE36802221A7038BD90F8C7
:105050004E32DBB2012B56D115F0100F0DD00023CC
:1050600080F85632072280F84E2280220A70C268E9
:1050700012211170C0F8403238BD15F0010F0FD069
:10508000002380F85632D0F840321BB9052380F84F
:105090004E3202E0062380F84E3280230B702EE061
:1050A000D0F840320133C0F84032D0F84422934265
:1050B0000AD3002380F84E3290F84D32012B0CBFFA
:1050C0008023B0230B701AE090F85632DBB2012B2C
:1050D0000ED1022380F85632F1230B70D0F86032E3
:1050E0001A79794B1A70036990F83D211A7006E01D
:1050F0000369D0F84022024492F83C211A70E36818
:1051000002221A7038BD90F84E32DBB2022B36D133
:1051100015F0100F08D0072380F84E3280230B7053
:10512000C36812221A7038BD15F0010F05D005238F
:1051300080F84E3280230B701DE090F85632DBB2BF
:10514000012B0CD1022380F85632E1230B70D0F8EA
:1051500060321A795C4B1A7003691B780BE00323E9
:1051600080F84E32D0F85032012B0CBFE823E023F8
:105170000B7003691B78E36802221A7038BD90F83F
:105180004E32DBB2042B0AD190F84D32012B0CBF0A
:105190008023B0230B70C36802221A7038BD8023AD
:1051A0000B70C36802221A7038BD90F85632DBB219
:1051B000022B04D090F85632DBB2032B56D1D4F830
:1051C00060321A68928B02F0800292B2002A00F0DC
:1051D0008C8194F85622D2B2022A40F086817AE17C
:1051E0001A79354B1A70002384F8563294F84E32EF
:1051F000DBB2042B1CBF002384F84E32A368B0221C
:105200001A70D4F85032013BC4F83831D4F8383130
:105210005A1CC4F8382122691278234483F83020BC
:1052200094F84D32012B1DD12023013B7FF4FDAFBB
:10523000A36880221A7015E0204A12681B790121A8
:10524000994011420ED01F4A1370D4F860321A7977
:105250001B4B1A70002384F8563284F84E32A36830
:1052600080221A70E36802221A7038BDD0F8382103
:105270000232D0F850329A4200F03E8190F84E321D
:10528000DBB2042B04D190F85532002B00F03481AE
:10529000D4F838210132D4F850329A4280F03A8161
:1052A00094F84E32DBB2042B40F0298194F8553249
:1052B000002B40F02F8122E11C8000402C80004018
:1052C0001F8000401E8000401B800040002384F8A7
:1052D0004E32A368B0221A70D4F838315A1CC4F880
:1052E000382122691278234483F8302094F84D3213
:1052F000012B06D12023013B7FF4FDAFA368802260
:105300001A7094F84E32DBB2042B04D194F8553263
:10531000002B00F00981E36802221A7038BD15F0F5
:10532000100F08D01023137015F0400F06D1C3687A
:1053300002221A7038BD15F0400F60D094F84E323A
:10534000DBB20A2B04D1D4F85832002B40F0F080A5
:1053500015F0040F1ED0092384F84E320023C4F840
:105360004432A368D0221A7023691B785B0884F842
:105370004F32D4F85C3203B19847D4F844320BB9B9
:1053800084F83C31236994F83C211A700123C4F855
:10539000403230E0002384F8543294F84A322BB97A
:1053A00012206849032200F03DFD16E0012B05D1D3
:1053B00011206449032200F035FD0EE0032B05D1D6
:1053C0001E206149032200F02DFD06E0042B04D1CC
:1053D0001F205D49032200F025FD0A2384F84E3288
:1053E0000023C4F83831A368C0221A7023691B78DF
:1053F0005B0884F84F32E36802221A7038BD13F05C
:10540000100F20D015F0010F15D1D0F84022D0F8A0
:1054100044329A4208D2D0F840325A1CC0F8402296
:10542000034493F83C2100E0002223691A70A3682A
:10543000D0221A703AE0C0230B7003691B78002356
:1054400080F84E3232E0002380F8543290F84A322D
:105450002BB912203B49032200F0E4FC16E0012B9B
:1054600005D111203749032200F0DCFC0EE0032BAC
:1054700005D11E203449032200F0D4FC06E0042BA1
:1054800004D11F203049032200F0CCFC23691B7893
:10549000DAB2D4F83831B3F5817F07D8D4F838318F
:1054A000591CC4F83811234483F83020E3680222E1
:1054B0001A7038BD0A79254B1A70A368F0221A7049
:1054C000032384F85632BEE594F85632DBB2032B40
:1054D0007FF498AD7FE51A791C4B1A70A368E82217
:1054E0001A70032384F85632BCE694F85622D2B2DE
:1054F000032A7FF4A1AE73E6E8230B70C8E6D4F864
:1055000038315A1CC4F8382122691278234483F8B0
:105510003020F6E6002384F8553294F84E32DBB2A0
:10552000042B7FF4D3AED4E6012384F85532F2E69F
:105530000023C4F83431D4F83801D4F858329847ED
:1055400006E700BF15560000255600001F800040EA
:1055500008B502480021FFF713FD08BD7487FF1F3F
:1055600008B502480121FFF70BFD08BDDC89FF1FCC
:1055700010B50446C3681B7813F0200F24D1002314
:1055800080F84E3290F84A321BB9122000F092FC9B
:1055900010E0012B03D1112000F08CFC0AE0032B5A
:1055A00003D11E2000F086FC04E0042B02D11F2052
:1055B00000F080FCD4F8583253B30022C4F83421F0
:1055C000D4F83801984710BD90F854320133DBB25B
:1055D00080F85432012B03D890F84932012B17D0B0
:1055E00094F84A321BB9122000F064FC10BD012B64
:1055F00003D1112000F05EFC10BD032B03D11E204F
:1056000000F058FC10BD042B02D11F2000F052FC0A
:1056100010BD00BF08B502480021FFF7A9FF08BD73
:105620007487FF1F08B502480121FFF7A1FF08BDDD
:10563000DC89FF1F70B50B4E30460021FEF730FEAF
:10564000094D0A4C30462946224604F017FF084E01
:1056500030460121FEF724FE30462946224604F05A
:105660000DFF70BD0097FF1F754200006087FF1F90
:10567000EC96FF1F184B1A6842F480521A60174BC1
:10568000174A1A60174ADA6002F180421A61164A14
:105690001A60164B1B7813F0010F07BF4FF41072FE
:1056A000134B4FF40072134B1A60104B1B7813F01E
:1056B000020F4FF400720CBF0F4B104B1A600B4BD4
:1056C0001B7813F0040F07BF4FF410720C4B4FF40C
:1056D00000720C4B1A6070473C80044000C00240CE
:1056E00001401F000110003800001F807099FF1F4B
:1056F00018B0044008C004401CB004400CC0044072
:1057000014B0044004C0044030B4394A3949136825
:1057100013F0800FFBD10B6813F0800FF7D172B636
:10572000354B1B78002B5FD0344B1C6804331D684D
:10573000043318680433196804331A6804331B6887
:105740002C44204401440A441A44C2F34E0242F459
:1057500000422B4B1A602C331C6804331D68043341
:1057600018680433196804331A6804331B682C441E
:10577000204401440A441A44C2F34E0242F4004257
:10578000204B1A6003F108131C6804331D680433AE
:1057900018680433196804331A6804331B682C44EE
:1057A000204401440A441A44C2F34E0242F4004227
:1057B000154B1A602C331C6804331D6804331868B9
:1057C0000433196804331A6804331B682C442044DA
:1057D00001440A441A44C2F34E0242F400420B4B05
:1057E0001A600022044B1A7062B630BC704700BFCA
:1057F00024B0034024B00B402E97FF1F38B0034065
:105800002CB0034030B003402CB00B4030B00B4004
:1058100060223A4B1A70E12201331A70384B1B7820
:10582000082B10D1012203F1804303F56C331A6079
:10583000132334490B6001F5FF2101F2FC710A606A
:10584000314A13601FE00A2B0DD139222F4B1A6009
:1058500013232C490B6001F5FF2101F2FC710A6052
:10586000294A13600FE00C2B0CBF35223D22274B39
:105870001A60122323490B6001F5FF2101F2FC712C
:105880000A60214A1360224B1B7833B10123214A5D
:10589000136002F50022136005E000231D4A136027
:1058A00002F5002213601C4B1B78012B06D88023C5
:1058B0001A4A136002F5002213601AE0042B06D87E
:1058C0008423164A136002F50022136011E0082BAE
:1058D00006D88523114A136002F50022136008E000
:1058E000102B94BF862387230C4A136002F50022F5
:1058F000136001220A4B1A70704700BF0040074036
:10590000448CFF1F0CB003400CB00B4008B00340A8
:105910003197FF1F20B00340458CFF1F24B0034088
:105920002E97FF1F2DE9F8430D2813D9172802D809
:105930000E38C0B20EE0A0F11A03DBB2052B02D87C
:105940000938C0B206E0A0F12203DBB2062B73D8FF
:105950001838C0B23A4B1E5C3A4B1B780BB1FFF7BC
:10596000D3FE16F0800F29D172B6374C374D4FF069
:10597000010726602F7062B672B6236813F0800F9D
:1059800004D12B7813F0FF0F0FD1F2E7304B1868DA
:1059900000222E4B1A7062B62E4B1B781841BDE8C0
:1059A000F8832B7813F0FF0FE3D062B602F07CF996
:1059B00072B6236813F0800FF3D0E7E772B606F0F3
:1059C00040095FFA89F9244F244C06F03F06244D24
:1059D0004FF00108B9F1000F04D03B6823F0100329
:1059E0003B6003E03B6843F010033B60266085F8B2
:1059F000008062B672B6236813F0800F04D12B7852
:105A000013F0FF0F0FD1E5E7164B18680022144B77
:105A10001A7062B60F4B1B781841BDE8F8832B78DB
:105A200013F0FF0FD6D062B602F03EF972B62368CB
:105A300013F0800FF3D0E7E70020BDE8F88300BF44
:105A4000E80F01002E97FF1F00B003403097FF1FA3
:105A500010B003402D97FF1F0CB00B4000B00B405F
:105A60002F97FF1F10B00B40094B1A6842F4805269
:105A70001A60084B1B781BB18022074B1A7002E09A
:105A8000C022054B1A7080F30C00044B188070473D
:105A90002C8004403197FF1F21C00C4000C00C40F7
:105AA000024B1A6801321A60704700BFBC97FF1F93
:105AB00008B50D4C236813F4802F01D001F08EF847
:105AC000236813F4806F01D000F012FF236813F4F1
:105AD000006F01D002F034FC236813F4805FE9D03A
