:1000000000800020BD010000B164000075640000A4
:10001000756400007564000075640000756400007C
:10002000756400007564000075640000B164000030
:10003000B164000075640000B164000065640000F4
:10004000B1640000B1640000B1640000B16400005C
:10005000B1640000B1640000B1640000B16400004C
:10006000B1640000B1640000B1640000B16400003C
:10007000B1640000B1640000B1640000B16400002C
:10008000B1640000B1640000B1640000B16400001C
:10009000B1640000B1640000B1640000B16400000C
:1000A000095E0000195E0000B1640000B164000048
:1000B000B1640000B1640000B1640000B1640000EC
:1000C000B1640000B1640000B1640000B1640000DC
:1000D000B1640000B1640000B1640000B1640000CC
:1000E000B1640000B1640000B1640000B1640000BC
:1000F000B1640000B5720000B1640000058D00001D
:10010000B164000025920000B1640000B1640000F9
:10011000B1640000B1640000B1640000B16400008B
:10012000B1640000B1640000B1640000B16400007B
:10013000B1640000B1640000B1640000B16400006B
:10014000B1640000B1640000B1640000B16400005B
:100150004D820000658200007D82000095820000D3
:10016000B1640000A1750000B1640000B16400003A
:10017000B1640000B1640000B1640000B16400002B
:10018000B1640000B1640000B1640000B16400001B
:10019000B1640000B1640000B1640000B16400000B
:1001A000B1640000B1640000B1640000B1640000FB
:1001B000B1640000B1640000B1640000574B4CF220
:1001C000205210B51A804DF628121A8000BF00BFC9
:1001D00006F072F9524B4FF010621A60514A9A6061
:1001E000514ADA60A3F53043203B1A6812F480725A
:1001F00004D14E490A604FF4A8521A604C4B1A7849
:10020000110703D51A7842F008021A70494B4A4C7C
:100210004A482A221A704A4A00239918A14203D256
:10022000195899500433F8E7464B474900228B424E
:1002300002D243F8042BFAE74448454900235A58B0
:100240001A500433B3F5DE7FF9D1424B424A802184
:1002500003F8011B9342FBD1404B3C4A1A60404BD0
:100260000A221A70A3F5805324225A70A0221A7011
:100270009A799207FCD59A79D406FCD4394A9379B5
:1002800003F00C03082B374BF9D103221A714022DB
:100290005A719A799006FCD5324A9179314B4906C8
:1002A000FBD5314A314911600221516020221A7078
:1002B0009A7902F00C020C2AFAD12D4B2D4A1A60C1
:1002C0002D4B2E4A1A6000225A60072243F8042C54
:1002D0002B4AC3F80C2D62B606F01AFD134B1B68AF
:1002E000DA0705D5274806F0DFFA274B274A1A60B8
:1002F000274B1B785B0609D5234C244A236893427D
:1003000004D1204806F0D0FA002323600AF00EFE44
:1003100006F0D8F808F06EF9FEE700BF0E200540A1
:1003200030800440823F04000100002B14D00340C1
:1003300002D0074000E007407C95FF1F102201001B
:100340006087FF1F7C95FF1F84B2FF1F0082FF1F85
:100350000000000000E400E05FE400E008ED00E0E1
:100360000050064000400640448004400000030165
:1003700004800440C010050014E000E0FF76010096
:1003800000002020198517571CE00340A5C3945A8C
:1003900000F00740FFFFFFFFFFFFFFFFFFFFFFFF32
:1003A000FFFFFFFFFFFFFFFFFFFFFFFFFFFFFFFF5D
:1003B000FFFFFFFFFFFFFFFFFFFFFFFFFFFFFFFF4D
:1003C000FFFFFFFFFFFFFFFFFFFFFFFFFFFFFFFF3D
:1003D000FFFFFFFFFFFFFFFFFFFFFFFFFFFFFFFF2D
:1003E000FFFFFFFFFFFFFFFFFFFFFFFFFFFFFFFF1D
:1003F000FFFFFFFFFFFFFFFFFFFFFFFFFFFFFFFF0D
:10040000FFFFFFFFFFFFFFFFFFFFFFFFFEFFFFFFFD
:1004100010B5054C237833B9044B13B10448AFF33E
:1004200000800123237010BD7C95FF1F0000000099
:100430000822010008B5064B1BB106480649AFF378
:1004400000800648036813B1054B03B1984708BD07
:1004500000000000082201008095FF1F7C95FF1F0F
:100460000000000010B5082805D95C485C495E22F0
:1004700003F0FEF9FEE708280EBF4FF43052C20128
:1004800042F47052574B1A80564B1A8892001A80C9
:100490001620012106F0EAFA534B1A68534B1B78D9
:1004A000002B28D072B6514B1B7813F0010F07D0E8
:1004B0004F4B18684F49096801404F480160196067
:1004C0004A4B1B7813F0020F07D04C4B1868494970
:1004D00049680140484841601960444B1B7813F05B
:1004E000040F07D0464B18684249896801404248CA
:1004F0008160196062B6434BDB68934208D0414B80
:1005000041491960DA6042F080421A613F4A1A603C
:100510001620002106F078FA324B1A88394B4FF03A
:100520000041D962110A59631946CB6A002BFCDAE3
:10053000344B996B4FF00041D962D2B25A631A46DC
:10054000D36A002BFCDA2F4CA36B1620012106F096
:100550005BFAC023013B7FF4FDAF1620002106F0BB
:1005600053FA204B1A884FF00043E362130A636387
:100570002146CB6A002BFCDA224B996B4FF00041ED
:10058000D962D2B25A631A46D36A002BFCDA1D4BE9
:100590009B6B1620012106F037FAC023013B7FF444
:1005A000FDAF124B1B78C3B113F0010F03D0124BF8
:1005B0001A68174B1A600D4B1B7813F0020F03D00B
:1005C0000D4B5A68134B1A60084B1B7813F0040F3D
:1005D00003D0094B9A68104B1A6010BDE01001005F
:1005E000F81001009895FF1F9C95FF1FC4AEFF1FD8
:1005F00080E100E0ACAEFF1FB8AEFF1F84E100E079
:1006000088E100E000C0024001401F0000001F80A0
:1006100000E100E004E100E008E100E00223024A1A
:100620001360043A1360704788F00F402DE9F843D7
:100630004A1E40F6FE739A4205D946484649C722EB
:1006400003F016F9FEE7454B1A68454B1B78002B63
:1006500028D072B6424B1B7813F0010F07D0414BE4
:100660001D68414C24682C40404D2C601C603C4B64
:100670001B7813F0020F07D03D4B1D683A4C64689D
:100680002C403A4D6C601C60354B1B7813F0040F06
:1006900007D0384B1D68344CA4682C40334DAC60F7
:1006A0001C6062B6344BDB68934208D0324B334C4B
:1006B0001C60DA6042F080421A61314A1A60B1F17E
:1006C000FF3F28DB05466FF001042E4F02202E4E1F
:1006D000DFF8C490284A4FF000484FF0400C3860D3
:1006E00030603860B9F80030C2F82C8043F0805395
:1006F0005363D36A002BFCDA936B9BB23060002CFF
:10070000A8BF25F8043C6346013B7FF4FDAF0134EC
:1007100002358C42E3D1124B1B78C3B113F0010FA9
:1007200003D0124B1A68194B1A600D4B1B7813F04B
:10073000020F03D00D4B5A68154B1A60084B1B78FB
:1007400013F0040F03D0094B9A68124B1A60BDE8EE
:10075000F88300BFE0100100F81001009C95FF1F16
:10076000C4AEFF1F80E100E0ACAEFF1FB8AEFF1FBC
:1007700084E100E088E100E000C0024001401F0089
:1007800000001F8088F00F4084F00F4000E100E07F
:1007900004E100E008E100E09895FF1F2DE9F00F6B
:1007A000DDF82090400240F4704A0AF47E4A52027A
:1007B00042F4704B0BF47E4B4C4A10684C4A127852
:1007C000002A28D072B64A4A127812F0010F07D0D8
:1007D000484A1568484C24682C40484D2C601460E9
:1007E000434A127812F0020F07D0454A1568424C6E
:1007F00064682C40414D6C6014603D4A127812F0E0
:10080000040F07D03F4A15683B4CA4682C403B4D71
:10081000AC60146062B63C4AD268824208D03A4A60
:100820003A4C1460D06040F080401061384810604D
:10083000B9F1FF3F3BDB6FF00105364F0224364E26
:10084000314A4FF000484AF0805A4FF0600C3C604B
:1008500034603C60C2F82C80C2F834A0D06A002812
:10086000FCDA906B80B2002DA8BF21F8040C346034
:10087000604601387FF4FDAF3C6034603C60C2F8F4
:100880002C804BF080505063D06A0028FCDA906BCB
:1008900080B2002DA8BF23F8040C346060460138F4
:1008A0007FF4FDAF0135023302314D45CFD1104BFE
:1008B0001B78C3B113F0010F03D0104B1A68174B0C
:1008C0001A600B4B1B7813F0020F03D00B4B5A68C6
:1008D000134B1A60064B1B7813F0040F03D0074B21
:1008E0009A68104B1A60BDE8F00F70479C95FF1F87
:1008F000C4AEFF1F80E100E0ACAEFF1FB8AEFF1F2B
:1009000084E100E088E100E000C0024001401F00F7
:1009100000001F8088F00F4084F00F4000E100E0ED
:1009200004E100E008E100E0014A024B1A60704770
:10093000000001B89C95FF1F08B50A46E8B1431EA8
:10094000092B05D90D480E493B2202F091FFFEE725
:10095000B1F5805F05D3094809493F2202F088FFBD
:10096000FEE7084931F91300074951F8200007490B
:1009700011F8131092B203F009FF08BDE010010056
:10098000641101003C110100A095FF1F50110100EE
:100990000123084A1360403A1360022111602022AB
:1009A000013A7FF4FDAF044A1360403A13601160CE
:1009B000704700BF88F00F4084F00F402DE9F047EA
:1009C00082B00F20012106F051F80124214B1C6058
:1009D0001020214606F04AF81F4D2C6011202146B8
:1009E00006F044F802232B60DFF87090A0464FF029
:1009F000340A27460025504607F004FE04465FFAF5
:100A000088F103F017FE49F8044B00972046394659
:100A10003A463B4603F03CFE4E4659F8040C00951E
:100A200029462A462B4603F063FE2C4656F8040C52
:100A3000E1B22A4603F0AAFE0134042CF6D108F1F3
:100A40000108B8F1040FD6D1FFF7A2FF002002B0D1
:100A5000BDE8F08784F00F4044F00F40A095FF1FE1
:100A60002DE9F04383B007460D461646072A00F2EB
:100A70009980072900F2998000925F485F493A46C1
:100A80002B4607F0F7FCFFB23846012105F0EEFFD8
:100A90000A2006F027F95A4B53F83730012283F821
:100AA0008020584C2069617B04F0BCFA206990F8E2
:100AB0004A32022B0CBF54495449002203F080FFF4
:100AC0004FF4FA7006F00EF95FFA85F84D4C2046A7
:100AD00048F0600104F078FB23684FEA880848F08A
:100AE00061011B68204601F0FD0198475FFA86F816
:100AF0004FEA88095FFA89F923681B68204649F0A4
:100B00006201984723681B68204649F063019847B3
:100B1000B200AB0042F06201009142F06302019228
:100B200035483B4945F0C00243F0610307F0A2FCA1
:100B300072B62069617B0122002304F053FB4FF45D
:100B4000B353013B7FF4FDAF2D4B53F837300122F7
:100B500083F8002162B62069617B002204F0C2FDA7
:100B600081460128244C23685B68204619BF294927
:100B70001122294914229847204607F065FC17E006
:100B80001D482649324607F075FC1E4B186990F83F
:100B90004A32022B0CBF1C491C49032203F010FFF0
:100BA000484625E04FF0FF3022E04FF0FF301FE0D5
:100BB0004FF47A7006F096F8114B53F83730012550
:100BC00083F880500F4C204648F0600104F0FCFA96
:100BD00023681B682046062198472169627B002311
:100BE000009320462B4604F0C9FD0028CDD1C7E76D
:100BF00003B0BDE8F08300BF0CB1FF1FA4110100DA
:100C0000481B010098AEFF1F00D8B805006CDC023D
:100C1000D4110100EC1101000012010018120100B2
:100C200030B583B0102007F0EDFC05461449154A95
:100C300003F052FB144C25602846144903F0DAFBFC
:100C40002068134903F05AFB2068002103F074FB6D
:100C5000206803F0ADFB0F4D012400942846214687
:100C60002246234603F014FD00230093284619462C
:100C70001A4603F03DFD204606F034F803B030BDBF
:100C800005470000F14500000096FF1F00004843A3
:100C900000002F44B895FF1F70B505463F4C2068F3
:100CA00003F00EFC09F0A8FB3D4B1860206803F030
:100CB00011FC09F0A1FB3B4B1860206803F014FC09
:100CC00009F09AFB384B1860206803F017FC09F014
:100CD00093FB0446354B1860002D2CD1344B18681B
:100CE00009F08EFB0546334E2D4B1868294609F056
:100CF0008FFC316809F0D0FA30602F4E294B18680C
:100D0000294609F085FC316809F0C6FA30602B4E9F
:100D1000254B1868294609F07BFC316809F0BCFABC
:100D20003060274E2046294609F072FC316809F0F0
:100D3000B3FA30602DE0012D2BD11D4B186809F05E
:100D40005FFB05461F4E164B1868294609F060FCEC
:100D5000316809F0A1FA30601B4E124B1868294621
:100D600009F056FC316809F097FA3060174E0E4BC7
:100D70001868294609F04CFC316809F08DFA30609A
:100D8000134E2046294609F043FC316809F084FAE5
:100D90003060034B186809F04DFD70BD0096FF1FD1
:100DA000F495FF1FF095FF1FAC95FF1FEC95FF1FFB
:100DB0006487FF1FB495FF1F0C96FF1F1096FF1F3F
:100DC000F895FF1FB095FF1F0496FF1FFC95FF1FAE
:100DD0000896FF1F08B50248012103F02BFC08BD4F
:100DE000B895FF1F08B5421E054B9A4207D830221E
:100DF00002FB00F203480449013A07F003FB08BD77
:100E0000575555053496FF1F0D0E0000124B1B78E9
:100E1000124AD15C124B1B8872B6124A52F831202A
:100E2000012082F880004FF4A072013A7FF4FDAFF8
:100E30000D4A40201060102010605A011BB113466B
:100E4000013B7FF4FDAF074B53F83120012382F8BB
:100E50000031064A137070475096FF1F4012010080
:100E60004896FF1F481B0100C8F00F403096FF1F37
:100E700010B5044607F0DEFA204610BD2DE9F04F0C
:100E8000BBB002AC84E8030016461D460024DFF820
:100E90001090DFF81080014F8FE100BFB812010001
:100EA0004C1201007012010004A802A9224602F0AF
:100EB00077FE04A8012102F08BFEA84240F07C815D
:100EC0000AA802A9224602F06BFE0AA8002102F03D
:100ED00089FE014606A807F027FB06A8494607F049
:100EE0006DFB824606A807F0D3FABAF1000F0AD0CC
:100EF0000120FFF7D1FEB34B1B68013BB34202D187
:100F0000B14802F02FFC10A802A9224602F048FEC8
:100F100010A8002102F066FE01460CA807F004FBB1
:100F20000CA8414607F04AFB82460CA807F0B0FA2D
:100F3000BAF1000F35D00020FFF7AEFEA14B1B68C1
:100F4000013BB3422DD1A14802F00CFCA04B186824
:100F5000022102F011FDDFF898A2504602F002FCD7
:100F60009C4802F0FFFB9C4B1868022102F004FD34
:100F7000504602F0F7FB994802F0F4FB984B1868D2
:100F8000022102F0F9FC504602F0ECFB954802F019
:100F9000E9FB954B1868022102F0EEFC504602F086
:100FA000E1FB16A802A9224602F0FAFD16A80021CC
:100FB00002F018FE014612A807F0B6FA12A8394648
:100FC00007F0FCFA824612A807F062FABAF1000FA5
:100FD00020D018A802A9224602F0E2FD18A802219A
:100FE00002F0F6FD5FFA80FA5046002105F03EFD62
:100FF000504605F079F98246724B1B68013BB342BB
:1010000008D17A4802F0AEFB504602F0D7FC78488F
:1010100002F0A8FB1EA802A9224602F0C1FD1EA8EC
:10102000002102F0DFFD01461AA807F07DFA1AA898
:10103000704907F0C3FA82461AA807F029FABAF1F4
:10104000000F20D020A802A9224602F0A9FD20A866
:10105000022102F0BDFD5FFA80FA5046002105F042
:1010600005FD504605F0F4FC8246564B1B68013BDB
:10107000B34208D1604802F075FB504602F09EFC76
:101080005B4802F06FFB26A802A9224602F088FD09
:1010900026A8002102F0A6FD014622A807F044FA86
:1010A00022A8564907F08AFA824622A807F0F0F9EA
:1010B000BAF1000F26D028A802A9224602F070FD3E
:1010C00028A8022102F084FD82462AA802A922460D
:1010D00002F066FD2AA8032102F07AFD83465FFA3A
:1010E0008AF0012105F0C2FC1BF0FF0F5FFA8AFABB
:1010F000434B53F83A304FF0010214BF83F880207D
:1011000083F8002130A802A9224602F049FD30A848
:10111000002102F067FD01462CA807F005FA2CA873
:10112000384907F04BFA82462CA807F0B1F9BAF11A
:10113000000F41D032A802A9224602F031FD32A8A8
:10114000022102F045FD824634A802A9224602F09F
:1011500027FD34A8032102F03BFD009036A802A928
:10116000224602F01DFD36A8042102F031FD83461F
:1011700038A802A9224602F013FD38A8052102F082
:1011800027FD01905FFA8AFA5046012105F06EFCB6
:10119000584609F035F90146504605F095FB504692
:1011A000009905F085FC019805F09CFD5046002152
:1011B00005F07EFC02F0D8F80134039B23B3DB6812
:1011C00023E000BF6487FF1F5C120100841201004E
:1011D000B495FF1FA01201000C96FF1FA81201007A
:1011E0001096FF1FB0120100F895FF1FC4120100F6
:1011F0009C120100D4120100E4120100F41201005B
:10120000481B01000413010000239C42FFF64CAE72
:101210003BB0BDE8F08F00BF2DE9F04FADF5785D34
:1012200083B008AF322005F05DFD002407F5B473EC
:1012300043F8044BC7F86C41043343F8044B43F8BC
:10124000044B43F8044B43F8044B43F8044B43F876
:10125000044B43F8044B1C60C7F89041C7F8944115
:10126000C7F89841C7F89C41C7F8A041C7F8A44106
:1012700007F5D47343F8044BC7F8AC41043343F883
:10128000044B1C60C7F8B841C7F8BC41C7F8C0415F
:10129000C7F8C441C7F8C841C7F8CC41C7F8D04126
:1012A000C7F8D441C7F8D841C7F8DC41012009F09C
:1012B00079FEC7F88800C7F89840C7F89C4007F542
:1012C0004D7507F5117400262046314607F02CF9BC
:1012D0001034AC42F8D107F58C60002141F288321D
:1012E0000AF06CF907F51174D74E2046314607F025
:1012F0002FF91034A542F8D1DFF8B8B302F006FA9E
:10130000044602F053F9B4F1FF3FF7D002F050F970
:101310005B2C00F0778507F54D70CC494FF4FA72DD
:10132000312302F0BFFB07F54D700BF04FF8022898
:10133000E4D997F83443204609F020FE30B1303C20
:10134000092C03D9C24802F00DFAD7E702F094FB4A
:1013500007F54D7009F09AFDB0F57F7F00F06F82C0
:1013600041DCB0F57B7F00F0F4801CDCB0F57A7FC7
:1013700000F08E800FDC40F29A23984200F09080BB
:1013800040F29B23984200F09080B0F5DC7F40F063
:10139000308500F033BD40F2EA33984200F0A4807B
:1013A00040F38880BAE0B0F57C7F00F0338107DC41
:1013B00040F2EE33984200F0018140F3E48017E1FF
:1013C00040F2F233984200F09181C0F2758140F210
:1013D000F333984200F0A38140F2FB33984200F0CF
:1013E0000D8200F006BD40F20643984200F0D7821D
:1013F00020DC40F20143984200F086820CDC40F28F
:10140000FE33984200F05D82C0F23782B0F5806F03
:1014100000F0678200F0EDBC40F20443984200F017
:101420007D8200F3908240F20343984200F02382D1
:1014300000F0DFBC40F24C43984200F090830FDC98
:1014400040F20943984200F0338340F2344398421B
:1014500000F05C8340F20743984240F0CA84F5E212
:1014600040F6CD73984200F0E98306DC40F6CC7379
:10147000984200F0778300F0BCBC40F6CF739842EE
:1014800000F0E083B0F57D6F00F05E8400F0B1BC49
:10149000704802F067F9704802F0B0FA00F0AEBC94
:1014A0006E4802F05FF900F0A9BC6D4802F05AF9ED
:1014B00000F0A4BC6B4802F0A1FA01203221FFF732
:1014C0003BFAFFF765FA802467490C604FF47A70A5
:1014D00005F008FC654B1C6001200021FFF72CFA89
:1014E000FFF756FA00F08ABC614802F087FA022042
:1014F0003221FFF721FAFFF74BFA20245A4A1460F1
:101500004FF47A7005F0EEFB584B1C60022000216E
:10151000FFF712FAFFF73CFA00F070BC554802F0F2
:101520006DFA03203221FFF707FAFFF731FA4FF483
:101530008054514B1C604FF47A7005F0D3FB4F4B35
:101540001C6003200021FFF7F7F9FFF721FA00F0F4
:1015500055BC4B4802F052FA04203221FFF7ECF957
:10156000FFF716FA1024474B1C604FF47A7005F011
:10157000B9FB454B1C6004200021FFF7DDF9FFF7A4
:1015800007FA00F03BBC414802F038FA052032214E
:10159000FFF7D2F9FFF7FCF94FF40054364B1C600B
:1015A0004FF47A7005F09EFB344B1C60052000213F
:1015B000FFF7C2F9FFF7ECF900F020BC344802F065
:1015C0001DFA06203221FFF7B7F9FFF7E1F92024D1
:1015D000294B1C604FF47A7005F084FB274B1C608C
:1015E00006200021FFF7A8F9FFF7D2F900F006BCAA
:1015F000284802F0B7F8284802F0B4F8274802F06B
:10160000B1F8274802F0AEF8264802F0ABF802F035
:101610003DFAF3E3244802F0F1F908203221FFF704
:101620008BF9FFF7B5F90224204B1C604FF47A7058
:1016300005F058FB1E4B1C6008200021FFF77CF9C9
:10164000FFF7A6F9DAE300BF20150100141301002B
:10165000181301003C13010048130100501301004E
:101660005813010068130100C4F00F40C8F00F4088
:10167000701301007813010004F00F4008F00F40D0
:101680008013010084F00F4088F00F4088130100A0
:101690009013010098130100B4130100C813010056
:1016A000E41301009C1A01000814010004F10F402A
:1016B00008F10F403333B33FBB4802F09FF90920D4
:1016C0003221FFF739F9FFF763F94FF40024B74BE4
:1016D0001C604FF47A7005F005FBB54B1C600920C7
:1016E0000021FFF729F9FFF753F987E3B14802F02A
:1016F00085F90A203221FFF71FF9FFF749F9042481
:10170000AD4B1C604FF47A7005F0ECFAAB4B1C60EB
:101710000A200021FFF710F9FFF73AF96EE3A84815
:101720004FF47A7102F0FEF906460020FFF7B4FA92
:101730008046002002F09CFC0446002002F098FC49
:101740000146204608F0A8FD0446002002F090FC67
:101750000146204608F0A0FD9A4908F059FF82464C
:1017600007F5AC7007F5F07107F5BF52083202F0CB
:1017700005FD07F5B47407F59C70A4F12801A4F1E8
:10178000200201F0B9FCC82005F0ACFA4FF47A74DD
:1017900000254FF02309484604F0A6FD0544013C0E
:1017A000F9D1012005F09EFA504608F0E9F9024609
:1017B0000B46854C84FB0541ED17C5EBA11100914B
:1017C000D7F858110191D7F8E011029107F5BF51F0
:1017D000083109680391D7F838110491D7F84011FE
:1017E0000591D7F8481106917848414602F040F833
:1017F00002F04CF9B6F1FF3F91D1FFE2744C23683F
:10180000D3F86002042102F013F907F5BF50083045
:101810006B4944F620620A2302F044F96D4807F54B
:10182000BF51083102F024F8246807F5BF50083092
:1018300009F028FB08F0DAFCC4F86002DEE2644C30
:101840002368D3F86402042102F0F2F825685C48AA
:1018500044F6206102F056F908F0C8FCC5F86402AD
:101860002368D3F8640208F08BF902460B465A4805
:1018700001F0FEFFC2E205F091FE00200146FEF7F6
:10188000F1FD07F5BF5008306421FEF7CFFE07F5E4
:10189000BF550835AC1E05F1C606504D34F8020F91
:1018A00002F08CF8284601F05DFFB442F6D14C48B6
:1018B00002F0A4F800200146FEF7D4FDFEF7AEFECC
:1018C0009CE20F2000210122FFF7CAF8102000211E
:1018D0000222FFF7C5F8112000210322FFF7C0F80C
:1018E0008CE2404801F03EFF3F48002102F01AF927
:1018F00004463E48214601F0BBFF204601F0FAFFB6
:101900003B4802F07BF879E23A4801F02BFF364879
:10191000002102F007F901F0D1FF6FE22C4C23689F
:10192000988802F075F82368D868002102F080F8E2
:101930002368586A002102F07BF823682E48196852
:1019400001F096FF5AE201F0D7FE244C20E007F5A3
:10195000BF55083507F5AC7007F5F0712A4602F05F
:101960000DFCD7F8580102F029F8204601F0FAFEE4
:10197000D7F8E00102F022F8204601F0F3FE2868D3
:1019800002F01CF8204602F039F8642005F0AAF9AC
:1019900001F0BCFE3128DAD101F054FE2EE201F054
:1019A000ABFE0E4C4BE000BF1014010044F00F40A2
:1019B00048F00F401814010084F00F4088F00F40E9
:1019C0001413010000004040D34D621020140100A8
:1019D0006887FF1F88140100981401009C12010001
:1019E00020150100A8140100B8140100BC14010066
:1019F000D0140100DC1401001C15010007F5BF55CF
:101A0000083507F5AC7007F5F0712A4601F074FB54
:101A1000C82005F067F9D7F8580101F0CFFF20463C
:101A200001F0A0FED7F8E00101F0C8FF204601F068
:101A300099FE286801F0C2FF204601F0DFFF01F0A7
:101A400065FE3128DAD101F0FDFDD7E101F054FE49
:101A500007F59C75AD4E24E0284607F5B47207F5EE
:101A6000A071203A02F08AFB07F5BF54083407F54D
:101A7000AC7007F5F071224601F03EFBC82005F07E
:101A800031F92968D7F84021D7F84831D7F85801FB
:101A90000090D7F8E001019020680290304601F0F4
:101AA000E7FE01F033FE3128D6D101F0CBFDA5E1F0
:101AB00001F022FE4FF0020ADFF88092DFF8808208
:101AC0001DE0504604F08AFBC82005F00BF94FF4E6
:101AD0007A7400252326304604F006FC0544013CB8
:101AE000F9D188FB0531ED17C5EBA1114846C1F5C9
:101AF0007F41FF3101F0BCFE012005F0F3F801F059
:101B000005FE3128DDD101F09DFD77E101F0F4FD06
:101B1000002401261CE0204602F0AAFA05462046D1
:101B200002F0A6FA0146284608F0B6FB0546204614
:101B300002F09EFA0146284608F0AEFB744908F010
:101B400067FD314601F074FF4FF4FA7005F0CAF8F2
:101B500001F0DCFD3128DED101F074FD4EE101F031
:101B60007FFE4BE16B4801F049FF05204FF4967171
:101B7000FEF7E2FEFEF70CFF00200146FEF772FCC6
:101B80001024654D2C604FF47A7005F0ABF872B6F6
:101B90004FF40053614A13604FF47072013A7FF4BE
:101BA000FDAF5F4A14604FF4A072013A7FF4FDAFBD
:101BB0005C4A13604FF4F063013B7FF4FDAF05F026
:101BC0006FF8064607F5BF5008306421FEF72EFD7A
:101BD00005F066F8861B62B607F5BF550835002488
:101BE000DFF86091288808F00BFC8046204608F05A
:101BF00007FC594608F058FC0146404608F04CFBEB
:101C000008F03EFE81B225F8021B484601F030FE86
:101C10000134642CE6D107F5BF500830642101F08F
:101C200019FC07F0ADFF02460B463F4801F020FECD
:101C30003E483146642201F01BFEDFE0012001F046
:101C4000A7FBDBE03A4801F0D9FE00200146FEF791
:101C500009FC05204FF42F71FEF76EFEFEF798FE8B
:101C600007F5BF55063500241026C7F89460DFF845
:101C7000AC90DFF8AC80DFF8ACA0D7F89400264930
:101C80000860212005F02EF872B64FF40053C9F811
:101C900000304FF4A073013B7FF4FDAFC8F8006043
:101CA000630102D0013B7FF4FDAF4FF40053CAF84B
:101CB000003007F5F0701521FEF7B8FC62B607F5A5
:101CC000F07015214FF07C5201F0ACFB024625F874
:101CD000020F4FF6FF73984206D01648214601F0D6
:101CE000C7FD0134642CC8D107F5BF550835284617
:101CF000214601F0AFFB07F043FF02460B4629885F
:101D000000910D4801F0B4FD78E000BF24150100FA
:101D10000000404038150100C4F00F4004F00F40AF
:101D2000C8F00F4008F00F40481501007015010081
:101D300094150100AC150100B8150100F410010064
:101D4000D34D621040150100AF4801F057FE00204E
:101D50000146FEF787FB0520C821FEF7EDFDFEF7E3
:101D600017FE0522A94B1A702822A94B1A80A948F0
:101D7000A949AA4A06F046FB07F5BF5606360025D4
:101D80004FF01009A64C4FF00008A64AC2F8009088
:101D900084F80080237813F0FF0FFBD072B607F5AC
:101DA000F0701321FEF742FC62B607F5F0701321C4
:101DB0004FF07C5201F036FB26F8020F4FF6FF730E
:101DC000984202D00135642DDFD1924806F032FBF3
:101DD00007F5BF5408342046294601F03BFB07F0C5
:101DE000CFFE02460B46218800918F4801F040FD4E
:101DF00004E08E4807F54D7101F03AFD01F09CFDBD
:101E0000FFF77CBA07F58C6089494FF4FA7241F20A
:101E1000883301F047FE07F58C6001F075FB20B1B7
:101E200001240025FD66A84620E0824801F09AFCC6
:101E300001F06CB807F58C63195D7B2915D11D463F
:101E4000254407F5117000EB0816304606F0A6FB96
:101E5000013415F8011F7D29F7D107F5117202EB46
:101E6000081006F09BFB08F10108013407F58C60AF
:101E70000AF0ACFA8442DDD3C7F86C80C7F8508012
:101E8000684B10221A6040221A600A2004F02AFFD0
:101E900001F0F2FD684B1B686848196801F0E8FC26
:101EA0006748684901F0E4FC6748684901F0E0FCD4
:101EB000674801F057FC0025C7F89450BD67C7F884
:101EC0008C507D612C460120F86500213964614801
:101ED00001F048FC3A6D002A40F3CC8700247C676F
:101EE000D7F8880009F066F807F511767C6F2501B0
:101EF00073199C68601C09F055F8C7F8880071597F
:101F000022460AF0EDFA0023D7F888502B5507F542
:101F10004D7002F09FF807F54D70D7F8881007F55F
:101F2000BF5208324FF4167301F00CFF002210B9B3
:101F300007F5BF52083207F5775410342046D7F81A
:101F4000881001F059FE07F1980394E8030083E834
:101F50000300002800F0D387D7F89C306BB900F05D
:101F6000CEBF07F51173185901F0FCFB1034AC42D9
:101F7000F7D101F0E1FC00F0C9BF00247C6607F155
:101F8000A80507F1A00007F19801334A01F070FE9F
:101F9000284607F19801314A01F06AFE07F1B000C6
:101FA00007F198012E4A01F063FE07F1B80007F12E
:101FB00098012C4A01F05CFE07F198002A4901F0D3
:101FC00065FE80B2B86307F1C00007F19801274AA7
:101FD00001F04EFE07F19800254901F061FE01462F
:101FE00007F5A47006F0A0FA07F19800214901F066
:101FF0004DFE07F19800204901F048FE00283FD02F
:102000001E4A10603FE000BFF01501005096FF1F10
:102010004896FF1F3496FF1F0D0E0000FF7601004B
:102020003096FF1FC4F00F40B81501000C160100D8
:1020300020160100241601006887FF1F38160100D2
:102040004C1601006416010068160100801601009C
:10205000881601009416010098160100A0160100D0
:10206000A8160100B8160100C4160100D016010020
:10207000D8160100E4160100F41601006487FF1F62
:102080000122B94B1A6007F19800B84901F0FEFD32
:10209000786307F19800B64901F0F8FDB86207F1DE
:1020A0009800B44901F0F2FDF86507F19800B249D3
:1020B00001F0ECFDF86007F19800B04901F0E6FD91
:1020C000386107F19800AE4901F0E0FD002808BF33
:1020D0000120C7F8800007F19800AA4901F0D6FD59
:1020E000786207F19800A84901F0D0FD386207F145
:1020F0009800A64901F0CAFD18B90022A44B1A6045
:1021000006E007F19800A14901F0C0FDA04B18605E
:1021100007F198009F4901F0B9FD07F198009E4929
:1021200001F0B4FD07F198009C4901F0AFFD07F103
:1021300098009B4901F0AAFD07F1E80407F1C800E7
:1021400007F19801974A01F093FDA4F1180007F1F7
:102150009801954A01F08CFDA4F1100007F1980157
:10216000924A01F085FDA4F1080007F19801904A18
:1021700001F07EFD204607F198018E4A01F078FDBE
:1021800007F1F00007F198018B4A01F071FD07F5A6
:10219000947407F1F80007F19801884A01F068FD8E
:1021A000A4F1280007F19801854A01F061FDA4F12E
:1021B000200007F19801834A01F05AFDA4F11800AC
:1021C00007F19801804A01F053FDA4F1100007F1D6
:1021D00098017E4A01F04CFDA4F1080007F1980136
:1021E0007B4A01F045FD204607F19801794A01F04C
:1021F0003FFD07F5987007F19801774A01F038FD27
:102200000025AA46AB46A4F1300656E007F1C0000F
:10221000294601F0DDFC044607F5755028303146AB
:102220002A4601F0BDFC07F575522C3213680BB13C
:10223000DB6800E0002303FB04AA0024A046A146BB
:1022400011E007F57550303031462A4601F0A8FC00
:1022500007F575503030214601F0BAFC0028C8BFA0
:1022600008F10108013407F57550383031462A4627
:1022700001F096FC07F575503C3003680BB1DB6844
:1022800000E04B469C42DCDB07F58870294601F0F4
:102290009FFC012809D107F1C000294601F098FCF4
:1022A00008FB00F00BEB002B06E007F1C00029460D
:1022B00001F08EFC08FB00BB0135D7F8C4300BB130
:1022C000DB6800E000239D42A0DBC7F844A0BC6FA0
:1022D00014B1204608F06EFE5846042108F0DEFDD9
:1022E000B8673E4801F03EFA3D4801F03BFAD7F8A6
:1022F000480101F037FA3B4801F034FA1A4B1B68E9
:10230000012B09DD384801F02DFA174B186801F050
:1023100055FB364801F026FA354B00251D60354B3C
:102320001D60354B1D60354B1D60354B1D60354BB9
:102330001D60354B1D60354B1D60354B1D60354BA9
:102340001D60354B1D60354B1D604FF47A737C6BFF
:1023500003FB04F3BB600025C7F89050C7F804B036
:10236000C7F830A0F7E300BF6487FF1F0017010024
:10237000101701002417010034170100481701004D
:10238000601701006C1701007C1701009017010015
:102390005496FF1FA8170100B4170100C0170100D1
:1023A000D4170100E4170100F41701000018010020
:1023B0000C1801001C1801002C180100381801002D
:1023C000441801004C1801005C1801006418010059
:1023D000701801007C180100841801009418010095
:1023E00098180100A8180100AC1801009C12010007
:1023F0002C96FF1F1896FF1F2896FF1F1496FF1F8D
:10240000B495FF1F0C96FF1F1096FF1FF895FF1F36
:10241000B095FF1F0496FF1FFC95FF1F0896FF1F36
:1024200001F042F9A0B1B748012101F07BFBB0F106
:10243000FF3F0DD13C6D013C7C67FD6D013DC7F850
:102440009450B14B1B68C7F89030D7F880407C6639
:10245000AE4B00251D60AE4B1D60AE4B1D60AE4BFC
:102460001D6007F5847393E80300D7F890200023DC
:10247000FEF704FD7C6C002C40F38A854FF00008C9
:102480003D6CFD61FD63C7F81880C7F88480C7F80C
:102490002C80C7F84C80C346C246C7F87C80DFF862
:1024A0009C92C7F854D0BBF1000F7DD107F5765050
:1024B00007F1F801524601F073FB07F57655043534
:1024C0002B681BB1DB68C7F88C3002E00024C7F82A
:1024D0008C40002307F5B4701A5807F5DC715A5088
:1024E0000433282BF8D100252C4607F57650083008
:1024F00007F1D801524601F053FB07F5765008303A
:10250000214601F065FB07F5B473585107F5765085
:10251000103007F1E001524601F042FB07F576501A
:102520001030214601F054FB07F5C87358510134AF
:1025300004350A2CD9D1BAF1000F00F0EC84774BA6
:102540001D8807F1C800514601F042FB044607F11F
:10255000D000514601F03CFB80B2704A1080D7F8A1
:1025600084309C420FD10CE0D7F8844004EB440245
:1025700012016B486B49013A05F044FF01253D66A5
:1025800021E0A84213D0631E6748834214D804EBAD
:102590004402120162486349013A05F033FFC7F86B
:1025A000844001243C660EE000253D660BE0C7F840
:1025B000844001243C6606E0C7F8844001253D665E
:1025C00001E001243C6607F1B000514601F000FB38
:1025D00085B2B5F5FA7F06D35448554940F2E63244
:1025E00001F046F9FEE707F57650183007F1F801DB
:1025F000524601F0D5FAF96FD7F88C00B1FBF0F430
:1026000000FB141407F576501830214601F0E0FA6B
:10261000484B187007F57650203007F1E801524614
:1026200001F0BEFA07F576502030214601F0D0FACD
:10263000064683B2B3F5805F06D33C483C4940F27E
:10264000EA3201F015F9FEE707F57650283007F178
:10265000F001524601F0A4FA07F5765028302146E1
:1026600001F0B6FAB866431E9BB2092B06D92F4873
:102670002F4940F2ED3201F0FBF8FEE707F5765006
:10268000303007F1B801524601F08AFA07F576506A
:102690003030214601F09CFAB86584B23C67002DC9
:1026A00008BF1325002C00F05584C5F34F05D7F85B
:1026B0008C405C4540F30681BBF1000F40F0EF8099
:1026C00007F57650383007F58071524601F068FA08
:1026D00007F576503830002101F084FA014607F5FD
:1026E000AC7005F021FF07F5AC70134905F066FFEB
:1026F000002840F0D080D7F89040002C00F03284C1
:10270000C9E000BF141301006487FF1FF495FF1F89
:10271000F095FF1FAC95FF1FEC95FF1F4896FF1F1C
:102720003496FF1F0D0E000057555505E0100100AF
:10273000B81801005096FF1F201501003096FF1FAA
:102740009A4801F00FF80124FC62994801F00AF858
:10275000D7F8580101F006F8964C204601F002F82F
:10276000954800F0FFFF07F5775007F58071524656
:1027700001F016FA07F57750012101F033FA00F065
:10278000F1FF204600F0EEFF07F5AC708B4905F035
:1027900015FF18B18A4800F0E5FF6FE007F5AC704F
:1027A000884905F00BFFE0B1874805F043FE00249F
:1027B0008648214601F0B6F9B0F1FF3FF8D18448D0
:1027C00000F0D0FFD7F88440631E8248834255D87A
:1027D00004EB440212017C487F49013A05F012FEE5
:1027E0004CE007F5AC707D4905F0E8FE40B3764853
:1027F00005F020FE00247548214601F093F90128D8
:1028000013D1774800F0AEFFFC6D013CC7F894404F
:10281000D7F88040013C7C66724B1B68C7F890304B
:10282000D7F83080FC6E7C6705E0B0F1FF3FE2D165
:10283000674800F097FFD7F88400FEF7D3FA1DE051
:1028400007F5AC70684905F0B9FEB8B15E4805F00F
:10285000F1FD07F5F0705D490022642301F022F9D3
:10286000554800F07FFF07F5F07000F07BFF5F48F0
:1028700000F078FFD7F88400FEF7B4FAD7F8C43038
:102880000BB1DB6800E00023013B9A4514BF5848B8
:10289000584800F067FF07F5AC7005F0F9FD564B9E
:1028A0001878B1B2FEF748F8FEF772F8002407F581
:1028B000B476305907F5C8731959FEF73DF804345A
:1028C000282CF6D100F0F0FEB0B14048012101F013
:1028D00029F9B0F1FF3F0FD1FC6D013CC7F89440DE
:1028E000D7F88040013C7C663E4B1B68C7F89030AF
:1028F000D7F83080FC6E7C672E466D0005F108032A
:1029000023F00703ADEB030D08ACADEB030D08A8F6
:10291000B86499F8003013F0FF0FFAD0396F59B14D
:10292000BA6E90B2BB6D9AB2009601382146013A58
:10293000BB6CFDF733FF03E020463146FDF776FE22
:1029400062B610232D48036040230360B96B012950
:102950000AD1680845B140000023E15A07F54D72DD
:10296000995202338342F8D1204631464FF07C52CF
:1029700000F058FD07F040FD214B18603C6F002C23
:1029800042D0B86C31464FF07C5200F04BFD07F05E
:1029900033FD1C4B1860BD69002D40F0E982184BD7
:1029A0001B68FB61F8630124BC61E1E2F8180100D7
:1029B00004190100A8180100081901000C190100F0
:1029C00010190100141901003496FF1F141301009F
:1029D0001C190100575555050D0E00002419010062
:1029E0002C1901006487FF1F3819010040190100EC
:1029F0009C120100441901005096FF1FC4F00F40C3
:102A00002496FF1F4C96FF1F3D6E3DB307F5F470F3
:102A100007F5DA73A0F10C01B34DB44C012053F863
:102A2000042F22B1A25C55F8322082F800018B42BB
:102A3000F5D1FDF7ADFF07F5B47407F5B27304F1F6
:102A40002401A94DA94C012053F8042F22B1A25C06
:102A500055F8322082F880008B42F5D1A44B1B78C8
:102A60007BB1FC6CBD6F55F8240007F0C5FCA14B91
:102A7000196807F011FC07F003FF45F82400013442
:102A8000FC6472B6002389F800300BF1010B62B6CA
:102A9000FC6F0134FC6707F1C000514601F098F863
:102AA000044607F57750083007F1F801524601F067
:102AB00077F807F577550C352B680BB1DB6800E02C
:102AC000002303FB04F39B4504BF0AF1010A4FF006
:102AD000000B7C6DA54608F101087D6CA845FFF64A
:102AE000E0AC55E253F8042FB24204D0825C54F8B3
:102AF000322082F80011AB42F4D17F4B1A787A4B26
:102B000053F83230012483F800417C4805F092FCF0
:102B100000227B4B1A7007F5847393E80300D7F803
:102B200090202346FEF7AAF9D7F890400134C7F861
:102B30009040744B1B689C420DDA7D6B002D03DDC9
:102B40007148B96800F0EEFFBC6A002C03DD6E48E6
:102B5000214600F0E7FF6B4B1B68D7F890509D4271
:102B6000FFF65EACD7F804B07C6FC7F8904007F56D
:102B7000B47507F59C7207F1A80393E8030082E897
:102B80000300A5F1280213E9030082E8030011B154
:102B9000D1F80CA001E04FF0000AD7F83C3113B196
:102BA000D3F80C9001E04FF00009BAF1000F3DDDC1
:102BB000002607F57750203007F5A071324600F067
:102BC000EFFF07F577502030002101F001F8804633
:102BD00007F57750183007F5A071324600F0E0FF96
:102BE00007F577501830012100F0E8FF04460D4644
:102BF000B8F1310F14D845490B6803EB8808D8F8B1
:102C0000600206F0BDFF02460B462046294607F04B
:102C100073FA28B92046294607F0E8FAC8F8600296
:102C2000012004F05FF801365645C2D1B9F1000F1A
:102C300026DD374800F096FD0024DFF8F080334EA3
:102C400007F59C70214600F0C3FF054631280CD8DB
:102C500000F19802336853F8220006F091FF024613
:102C60000B464046294600F003FE09F1FF339C4223
:102C700014BF2848284800F075FD01344C45DFD1C9
:102C8000264B1B78012B1FD1254800F06BFD254EEC
:102C900033681C4A1068B3FBF0F000F09FFE344626
:102CA00006F57F76DFF86C80164D404600F05AFD41
:102CB00054F8040F2B68B0FBF3F000F08FFEB44221
:102CC000F3D1194800F04EFD144B1B78002B66D150
:102CD000134800F047FDBC6B54B307F232350024B3
:102CE0002646DFF8308050E0481B0100401201000A
:102CF0005096FF1F2496FF1F5496FF1F3496FF1F08
:102D00003096FF1F6487FF1F141301006887FF1FA1
:102D1000481901009C1201005C1901001C96FF1F5C
:102D200060190100C096FF1F7019010054190100BD
:102D3000BBF1000F30DDBC6F251F0024DFF884825B
:102D40000BF1FF36DFF8709255F8040FD8F8003019
:102D5000B0FBF3F000F042FEA64202D0484600F07D
:102D600001FD01345C45EFD116E035F8020F00F0AB
:102D700025FE07F1B000314600F02AFF01388442F9
:102D800002D0404600F0EEFC013407F1B0003146BD
:102D900000F01EFF8442E8DB864800F0E3FC3D6D56
:102DA0006A1ED7F89040944205DBD7F880506B1E1E
:102DB0007C6EA34214DD804800F0D4FC7D6A002DB7
:102DC00006DD7E484FF47A7101FB05F100F0AAFEA2
:102DD0003C6A002C0EDD7948214600F0A3FE09E094
:102DE000D7F89050954205D17C6E9C4202D1744830
:102DF00000F0B8FC0122734B1A6007F5B47507F5B3
:102E0000B27305F12401002243F8042F8B42FBD159
:102E10006D4B002119606D4B19606D4B19606D4B46
:102E200019606D4B19606D4B19606D4B19606D4BDE
:102E300019606D4B19606D4B19606D4B19606D4BCE
:102E40001B687B6100226C4B1A7007F5A47005F0BB
:102E50001FFB7C6E01347C66D7F88050A5423FF79B
:102E60008EA87C6F01347C673D6DAC42FFF638A8BC
:102E7000FC683D6900F040FCF86D431ED7F89410E3
:102E80008B4210DD4C4800F06DFC3CB14B484FF4D8
:102E90007A7101FB04F100F045FE04E01DB14748E2
:102EA000294600F03FFED7F894200132C7F894205D
:102EB000FB6D9A42FFF60BA83E4800F053FC00F071
:102EC000E5FD00224B4B1A60BC6F14B1204608F0A0
:102ED00071F8D7F8880008F06DF807F5497407F520
:102EE0000D75204605F0D4FA103CAC42F9D15AE0F9
:102EF000204605F0CDFA103CAC42F9D153E03F48F2
:102F000000F030FC00243E4DFFF72BB807F5497464
:102F100007F50D75ECE707F1C800002100F058FE39
:102F2000C7F8840007F1D000002100F051FE354CB5
:102F300020807D69EAB2344B53F83230012283F8A5
:102F40000021D7F88440631E304DAB423FF639ABC9
:102F5000FFF70ABBBC6EA0B201380021FDF782FA70
:102F6000FFF7A5BBFC6A002C7FF4EFABFFF7E8BBD3
:102F7000274CF96B07F08EF9F96907F095FAF96BB0
:102F800007F046FB0146206807F084F920603BE526
:102F9000184B1E6807F5B47507F5B27324351A4C43
:102FA0001C4801219EE507F577572C37BD46BDE843
:102FB000F08F00BF701901009C1201001413010072
:102FC000201901006487FF1F2896FF1F1496FF1F1A
:102FD0002096FF1FB495FF1F0C96FF1F1096FF1F32
:102FE000F895FF1FB095FF1F0496FF1FFC95FF1F6C
:102FF0000896FF1F5496FF1F1C96FF1F74190100AF
:10300000803801004896FF1F481B010057555505A1
:103010002496FF1F4012010008B5054800230370E5
:10302000802343730349044A07F026FF08BD00BF0D
:103030003496FF1F710E00006087FF1F10B582B02D
:10304000144C20460E2102F0BFF823681B6820466E
:10305000072198472169627B4FF47A7300932046D9
:10306000012302F08BFB4023013B7FF4FDAF20697D
:10307000617B01230093002201920E2202F092FB59
:10308000022003F02FFE206902F0AAFBC0B202B0BA
:1030900010BD00BF98AEFF1F10B582B0012003F035
:1030A00021FE144C20460E2102F08EF823681B6886
:1030B00020461021984723681B68204629219847FD
:1030C00023681B682046A02198472169627B4FF442
:1030D0007A7300932046012302F050FB012003F095
:1030E00001FEFFF7ABFFC43818BF6FF0000002B05D
:1030F00010BD00BF98AEFF1F2DE9F04182B08046A1
:103100000F4616463C4C20460E2102F05DF823681F
:103110001B682046012198472169627B4FF47A732E
:1031200000932046012302F029FB4023013B7FF45A
:10313000FDAF2069617B01230093002501950E22DC
:10314000062302F02FFB35603D60C8F8005020696F
:10315000D0F83821D0F834319A4203D002F040FB45
:10316000C5B200E00025244B1869D0F83811D0F81A
:103170003421914203D002F033FBC4B200E00024BA
:1031800044EA05231BB2C8F800301B4B1869D0F87D
:103190003821D0F834319A4202D002F021FBC5B276
:1031A000154B1869D0F83821D0F834319A4202D042
:1031B00002F016FBC4B244EA05231BB23B600E4B7F
:1031C0001869D0F83821D0F834319A4202D002F090
:1031D00007FBC5B2084B1869D0F83821D0F8343154
:1031E0009A4202D002F0FCFAC4B244EA052424B2A6
:1031F000346002B0BDE8F08198AEFF1F03880888F4
:10320000834205D0834294BF4FF0FF3001207047C6
:1032100000207047FFFFFFFF70B586B04FF4FA70D3
:1032200003F060FD042000F065FB4FF4614000F006
:1032300045FB434B1869597B0023009301930122FE
:1032400002920324039404921A4601F079FE02F0DC
:103250006DFEFDF7B3FB3B4C04F10A06012514F8A3
:10326000010F294603F002FCB442F8D123200021CB
:1032700003F0FCFB0220002103F0F8FB24200021D6
:1032800003F0F4FB1C20012103F0F0FB4FF48072EB
:103290002D4B1A600620012103F0E8FB2B4D102472
:1032A0002C601520012103F0E1FB40232B6020203E
:1032B000012103F0DBFBFFF7EFFE00F0F9FF002038
:1032C00002F08CFF204602F0B5FF042002F0DEFF82
:1032D000272003F009F8001100FB00F3B22101FBE5
:1032E00003F115A3D3E90023521843F10003184951
:1032F00001FB00F0141A63F1000520462946154A27
:10330000002307F0DDFA40F64853984206D81248E9
:1033100012494FF4987200F0ABFAFEE7022002F077
:103320005DFFFDF77DFC0E4800F01CFA0D4800F033
:1033300065FB06B070BD00BF3D2F43A0000000003C
:1033400098AEFF1FD819010084F00F40C4F00F4061
:10335000771212007AAE0500E0100100E4190100B6
:103360003C1301004813010010B5074C052021460D
:1033700003F0AAFA0320214603F0A6FA1920034914
:1033800003F0A2FA10BD00BF001B3748D723F44357
:1033900010B582B004461D4B1A6813681C49009191
:1033A000928801921B481C491C4A00F061FA00F007
:1033B0006DFB012C27D11A48002100F0B3FB134B01
:1033C0001B681A68824203D01860012003F08AFC4F
:1033D0001348002100F0A6FB0C4B1B689A88824220
:1033E00003D09880012003F07DFC084B1A68136815
:1033F000074900919288019206480749074A00F060
:1034000037FA00F043FB02B010BD00BF6887FF1F12
:1034100080160100301A01003C13010064160100FF
:103420001413010070B504460E4615460222084BDF
:1034300008F012F9304606F0E3FF294607F034F8A9
:1034400006F0D4F807F0F6F934F8100070BD00BFAC
:10345000FD3100002DE9F04F87B0002905913DDDD9
:10346000824600EB410B0024002526462F46A0464D
:10347000A946204629460022224B06F023FA04469C
:103480000D463AF8020B06F069FBCDE90001424611
:103490004B4606F015FACDE9020122462B4606F00E
:1034A000EDFC02460B464046494606F00BFA8046C4
:1034B0008946DDE9000142464B4606F001FADDE9A6
:1034C000022306F0B1FB02460B463046394606F0B1
:1034D000F9F906460F46DA45CBD101E00026002770
:1034E000059B5C1E204606F039FB02460B46304623
:1034F000394606F0C3FC06F09FF806F077FE07B0E9
:10350000BDE8F08F0000F03F70B50646037833B396
:103510000246002425465B3B222B1AD8DFE803F045
:103520001219141919191919191919191919191917
:1035300019191919191919191919191919191919FB
:1035400016191800013504E0013D02E0013400E0E5
:10355000013C12F8013F002BDDD1F5B9FCB9304632
:103560005D2108F0EFFF0446D8B1407807F010FD68
:10357000C8B1013400F0F4FF3046A11B00F0FEFF9B
:1035800000F0F6FF00F0C4FF2146082208F04EFFCD
:10359000D0F1010038BF002070BD002070BD0020B8
:1035A00070BD002070BD012070BD00BF704700BF1E
:1035B000024B1A68024B1A60704700BF54AFFF1FDE
:1035C000C09AFF1F08B5054800F04CFD044800F004
:1035D00049FD044B1A68044B1A6008BD5896FF1F3A
:1035E0008C96FF1F54AFFF1FC09AFF1F2DE9F041BB
:1035F000441E114D114EDFF8488017E02A68B3547D
:10360000531C2B60142B11D100273775304608F05E
:10361000DDFE0246D8F800305B68404631469847E8
:1036200003F09CFD142003F05DFB2F6014F8013FB4
:10363000002BE3D1BDE8F08174AEFF1FC89AFF1FD5
:10364000E0B0FF1F70B5134C134D144E237813F0E8
:10365000FF0F10D02B7813F0030F0CD03268104BF3
:103660001B68D31A182B10D805E000220D4B1A60E6
:1036700004F0A4FB70BD03F093FD0028E6D0012206
:10368000084B1A6003F09CFD70BD04F0E3FB0028BA
:10369000F1D0EAE7CCB0FF1FDCB0FF1F54AFFF1F33
:1036A0007CB2FF1FC49AFF1F10B50F4B1B7813F09D
:1036B000FF0F0DD00D4B1B7813F0030F0AD00C4BEE
:1036C0001A680C4B1B68D31A182B08D8002402E088
:1036D000002400E0002403F063FD204410BD04F04A
:1036E000B9FB0446F7E700BFCCB0FF1FDCB0FF1FFB
:1036F00054AFFF1F7CB2FF1F08B501E0FFF7A2FF28
:10370000FFF7D2FF0028F9D108BD00BF08B5114B63
:103710001B7813F0FF0F0FD00F4B1B7813F0030F24
:103720000AD00E4B1A680E4B1B68D31A182B0CD8F4
:1037300002E004F06FFB08BD03F032FD10B103F0AE
:1037400079FD08BD4FF0FF3008BD04F083FB002871
:10375000EFD1F1E7CCB0FF1FDCB0FF1F54AFFF1F6C
:103760007CB2FF1F2DE9F0410446334B1B68BBB10F
:10377000324B1B688BB9324B1B7813F0FF0F28D0EC
:10378000304B1B7813F0030F23D02F4B1A682F4BAD
:103790001B68D31A182B37D81BE0FFF727FF18E058
:1037A000274B1B7813F0FF0F0BD0264B1B7813F021
:1037B000030F06D0244B1A68244B1B68D31A182B0E
:1037C0002BD8234B1B6813F0020F02D02046FFF7C3
:1037D0000DFF204600F0F0FE204608F0F7FD1D4FDB
:1037E0003D68C5F59C520832904234BF80469046F1
:1037F000194E70192146424608F072FE45443D605C
:1038000000237355BDE8F08108F0E0FD024613483F
:1038100001684D682146A847DBE70D4B1B6813F094
:10382000010FCED008F0D2FD02460C4801684D6869
:103830002146A847C5E700BFE09AFF1FC49AFF1FB3
:10384000CCB0FF1FDCB0FF1F54AFFF1F7CB2FF1FC7
:103850006C87FF1F70AEFF1FE49AFF1F0CB1FF1FA4
:1038600008B50248FFF77EFF08BD00BFE49AFF1FBE
:103870000FB400B5B5B036AB53F8042B009301A8D4
:10388000C8210BF0ABF901A808F0A0FDC72805D9A5
:10389000084809494A22FFF7EBFFFEE700238DF8AD
:1038A000CC3001A8FFF75EFF35B05DF804EB04B043
:1038B000704700BFE0100100A01A010008B5A0F594
:1038C0001652094B9A4205D9084809491B22FFF7AD
:1038D000CFFFFEE7430803F1376303F5D833B3FBAB
:1038E000F0F003F06FFA08BD809C0100E0100100C9
:1038F000A01A010008B5431E032B05D90A480B493D
:103900003522FFF7B5FFFEE7042806D10122084B58
:103910001A600322074B1A6008BD0022044B1A608C
:10392000044B186008BD00BFE0100100A01A0100A0
:10393000E09AFF1F6C87FF1F70B50C4B1B68002BB4
:1039400012DD0B4C0025E554204608F03FFD0246F1
:10395000084801684E682146B04703F0FFFB142079
:1039600003F0C0F9014B1D6070BD00BF74AEFF1FB6
:10397000C89AFF1FE0B0FF1F10B588B00C4606F0D4
:10398000FFF8CDE9000102A80949224608F012FB20
:1039900002A808F01BFD132805D906480649CD22C8
:1039A000FFF766FFFEE702A8FFF7DCFE08B010BDD8
:1039B000E41A0100E0100100A01A010000B587B070
:1039C000024601A8044908F0F5FA01A8FFF7CAFE6B
:1039D00007B05DF804FB00BFEC1A010000B587B02A
:1039E000024601A8044908F0E5FA01A8FFF7BAFE6B
:1039F00007B05DF804FB00BFF01A010008B5FFF73F
:103A0000B1FE0248FFF7AEFE08BD00BFEC15010095
:103A100000B587B0024601A8044908F0CBFA01A816
:103A2000FFF7ECFF07B05DF804FB00BFEC1A0100E4
:103A300010B588B00C4606F0A3F8CDE9000102A845
:103A40000A49224608F0B6FA02A808F0BFFC13287B
:103A500006D90748074940F21F12FFF709FFFEE7A2
:103A600002A8FFF7CBFF08B010BD00BFE41A0100A9
:103A7000E0100100A01A010008B500F071FD00225D
:103A8000014B1A6008BD00BF70AEFF1F08B500F003
:103A90006FFD00F03DFDFFF7B1FFFFF74DFFFFF7B2
:103AA000EBFF08BD2DE9F84F80468A46144699463B
:103AB000134B1E6800271D46FFF728FE1CB12B681C
:103AC0009B1B9C4215D3B0F1FF3FF5D0FFF7BAFD29
:103AD0005FFA80FB5046594608F092FA48B9013720
:103AE00008EB070303F801BCB9F1000FE4D04F4520
:103AF000E2D3002308F807304046BDE8F88F00BF46
:103B000054AFFF1F00B589B003460A4601A8194605
:103B10001823FFF7C7FF01A807F0B4F909B05DF853
:103B200004FB00BF00B589B003460A4601A8194648
:103B30001823FFF7B7FF01A807F0ACF909B05DF84B
:103B400004FB00BF0160426012B11378022B02D067
:103B5000002303604360704770B50E460368ABB145
:103B60004068E0B1002913DBC368994212DA00F122
:103B70001004002910DD0025204600F09BF80130DC
:103B800004EB00140135B542F6D107E0002070BD0A
:103B9000002070BD002070BD204670BD204670BD65
:103BA00038B5044608460D681146FFF7D5FF0246B2
:103BB00020462946FFF7C6FF204638BD10B504460B
:103BC000FFF7CAFF0146204600F084F810BD00BF91
:103BD00010B50446FFF7C0FF0146204600F08CF800
:103BE00010BD00BF10B50446FFF7B6FF01462046E2
:103BF00000F092F810BD00BF0160426012B113786E
:103C0000012B02D00023036043607047F8B50646DD
:103C10000F46036823B3406848B319B300F110049A
:103C2000C368012B20DD00253046214600F074F8E2
:103C30000146384608F05EFA10B904F11000F8BDEC
:103C400004F1100000F036F8023004EB00140135E6
:103C50007368DB6803EBD373B5EB630FE4DB05E05C
:103C60000020F8BD0020F8BD0020F8BD0020F8BD00
:103C700038B5044608460D681146FFF7C7FF0246EF
:103C800020462946FFF75EFF204638BD10B50446A2
:103C9000FFF7BCFF0146204600F02EF810BD00BF24
:103CA00010B50446FFF7B2FF0146204600F034F895
:103CB00010BD00BF816800F110034269914206DD2A
:103CC0000020013010335A689142FADC704700201E
:103CD000704700BF08B541B10A784AB900684B681F
:103CE0001844002109F004FC08BD0020002108BD93
:103CF0000020002108BD00BF08B549B10A784AB9C3
:103D000000684B68184400210A4609F083FC08BD8E
:103D1000002008BD002008BD10B40B4661B10A7830
:103D2000012A01D9032A09D101689A6800248C5418
:103D300000685B68184402E0002000E000205DF8A5
:103D4000044B70472DE9F00F9B4606688C5D002CF4
:103D500000F050814FF0FF3C4FF00008C1F1010727
:103D60002C2C00F040810ED80D2C00F03C8104D8A2
:103D7000093C012C00F2EE8035E1202C00F033816B
:103D8000222C76D0E6E05D2C32D005D83A2C00F01B
:103D90002A815B2C05D0DDE07B2C02D07D2C27D046
:103DA000D8E043689B4540F23A815D1C45601E01A6
:103DB0009319C3F808C0C3F804C0C3F80C80002BE3
:103DC00000F02F818568B5F1FF3F06D002EB0519A1
:103DD000D9F80C500135C9F80C507B2C14BF0224C3
:103DE0000124945504685C604368013B8360FAE0F9
:103DF0007D2C14BF4FF0020A4FF0010A4468631E85
:103E000000F1208102EB0414A4F1100954F80C5CB9
:103E1000B5F1FF3F12D054F8085CB5F1FF3F0DD16A
:103E200014F8104C544540F0FE80C0F808C001362C
:103E3000C9F80860B3F1FF3F06D1F6E0013B103C42
:103E4000B3F1FF3FE0D1F2E0002BC0F2CC8002EBF7
:103E500003146568B5F1FF3F05D0A568B5F1FF3FD4
:103E600001D18360BFE0013B103CB3F1FF3FF0D1D3
:103E7000B9E0741C04600B5D002B62D0222B23D1AF
:103E800001E0222B20D143689B450AD95C1C446089
:103E90001C011319C3F808C0C3F804C0C3F80C8090
:103EA00013B90660FF23CBE0D0F800904FF0030574
:103EB000155501365E60C3F80890C3F80C8083681E
:103EC000B3F1FF3F40D18EE05C2B34D1013404606C
:103ED0000B5D223B532B2BD8DFE803F02D2A2A2A37
:103EE0002A2A2A2A2A2A2A2A2A2D2A2A2A2A2A2A2F
:103EF0002A2A2A2A2A2A2A2A2A2A2A2A2A2A2A2A22
:103F00002A2A2A2A2A2A2A2A2A2A2A2A2A2A2A2A11
:103F10002A2A2A2A2A2A2D2A2A2A2A2A2D2A2A2AFB
:103F20002D2A2A2A2A2A2A2A2D2A2A2A2D2A2D2DE2
:103F30000660FE2384E00468013404600B5D002BFE
:103F40009FD10660FD237BE002EB0313DC680134A4
:103F5000DC6048E00368CC18CB5C03B3202B1ED098
:103F600006D8092B0ED30A2B19D90D2B0AD116E02E
:103F70003A2B14D002D82C2B04D110E05D2B0ED09C
:103F80007D2B0CD0203BDBB25E2B02D90660FE23DA
:103F900056E03B19036014F8013F002BDED1436863
:103FA0009B450AD95C1C44601C011319C3F808C066
:103FB000C3F804C0C3F80C8013B90660FF233FE0C8
:103FC000056802F804805E609D60C3F80C80036899
:103FD000013B03608368B3F1FF3F04D002EB03139E
:103FE000DC680134DC600668013606608C5D002CFC
:103FF0007FF4B6AE41684B1E1BD402EB011252F89F
:104000000C1CB1F1FF3F04D052F8081CB1F1FF3F86
:1040100011D0013B103AB3F1FF3FF0D10DE0FF2387
:104020000EE0FF230CE0FE230AE0FE2308E0FE235F
:1040300006E0002304E0FD2302E0002300E0FE236D
:1040400058B203E0B3F1FF3FCDD1F8E7BDE8F00F80
:10405000704700BF0023036043604FF0FF3383606D
:10406000704700BFFF22027342738273C2737047AE
:104070002DE9F04182B004462748284B197801F019
:10408000A3F82CB1244803681B682621984704E054
:10409000214803681B68272198471F4C2169627BD0
:1040A0000025009520462B4601F068FB2069617BC6
:1040B0001A4B1A78012600960195022301F072FB33
:1040C000206901F08DFB0746206901F089FB8046DD
:1040D0002169627B00952046334601F04FFB08F0D2
:1040E0007F00FFB247EA002006F08AF90C4906F08B
:1040F000DBF905F045FD06A3D3E9002305F0E0FB5D
:1041000006F074F802B0BDE8F08100BFAFF30080A4
:10411000000000606612714098AEFF1F7087FF1F9D
:104120000AD7A33CAFF3008010B582B0124C2046F2
:104130001D2101F049F823681B6820460D2198478E
:104140002169627B4FF47A7300932046002301F0CB
:1041500015FB4023013B7FF4FDAF2069617B012308
:104160000093002201921D2201F01CFB206901F046
:1041700037FBC0B202B010BD98AEFF1F2DE9F0436F
:1041800083B080460F461646374C20461D2101F06D
:104190001BF823681B682046002198472169627B31
:1041A0004FF47A7500952046002301F0E7FA40238A
:1041B000013B7FF4FDAF2069617B01230093002365
:1041C00001931D22072301F0EDFA206901F008FB9D
:1041D000206901F005FB8146206901F001FB5FFACF
:1041E00089F9C0B240EA09290FFA89F305FB03F304
:1041F000002BBCBF03F57F533F339B13C8F800303F
:10420000194C206901F0ECFA0546206901F0E8FA42
:10421000EDB2C0B240EA05252DB24FF47A7303FB2C
:1042200005F3002BBCBF03F57F533F339B133B606B
:104230000D4C206901F0D4FA0546206901F0D0FA4E
:10424000EDB2C0B240EA05252DB24FF47A7303FBFC
:1042500005F3002BBCBF03F57F533F339B13336043
:1042600003B0BDE8F08300BF98AEFF1F70B582B009
:1042700006460D460D4C20461D2100F0A5FF2046A8
:10428000314600F095FA2046294600F091FA21695E
:10429000627B4FF47A7300932046002301F06EFA9C
:1042A0004023013B7FF4FDAF02B070BD98AEFF1F0D
:1042B00008B52A200021FFF7D9FF0E200021FFF7C3
:1042C000D5FF2A200121FFF7D1FFFFF72DFF5A3834
:1042D00018BF6FF0000008BD8160C2600022C2708C
:1042E0000271704710B5034661F07F0101704270A2
:1042F0008468007902211A46A04710BD10B5044613
:10430000C3789BB108460A4906F0CEF806F0B8FA21
:10431000084BA3FB00121209B2F5807F28BF4FF4AF
:10432000807220460121D2B2FFF7DCFF10BD00BF32
:1043300000002041ABAAAAAA08B50A46C37813B167
:104340000F21FFF7CFFF08BD10B5044661F07F01D4
:10435000017083680079012122469847E36820793B
:10436000012122469847207810BD00BF10B50446B1
:10437000C078E0B92923237120461221FFF7E4FF1A
:10438000142801D01D2802D10123E3700EE0392347
:10439000237120461221FFF7D7FF142801D01D28D2
:1043A00002D10123E37001E000232371E07810BD06
:1043B00038B50446FFF7DAFFE578C5B1204600219D
:1043C000FFF7C2FF40F0010220460021D2B2FFF702
:1043D00089FF032002F086FC20460021FFF7B4FF8E
:1043E00040F0020220460021D2B2FFF77BFF2846B0
:1043F00038BD00BF38B50446C378002B44D008460A
:10440000224906F051F806F015FA054617280ADC8D
:1044100020460021FFF798FF00F0F7022046002118
:10442000FFF760FF38BDB0F5C05F10DD20460D21FD
:104430000222FFF757FFB5F5903FA8BF4FF4903524
:10444000134A82FB0532ED17C5EBA2120AE02046A3
:104450000D210022FFF746FF0E4A82FB0532ED17C1
:10446000C5EBA202C2F5807220460321D2B2FFF74B
:1044700039FF20460021FFF767FF40F00802204681
:104480000021D2B2FFF72EFF38BD00BF000020414F
:10449000398EE338ABAAAA2A10B5044661F05F0151
:1044A000017083680079012122469847E3682079EA
:1044B0000221224698476078237843EA002010BD05
:1044C00008B5C3781BB11421FFF7E6FF08BD002033
:1044D00008BD00BF08B5C3781BB11621FFF7DCFF8C
:1044E00008BD002008BD00BF08B5C3781BB1182166
:1044F000FFF7D2FF08BD002008BD00BF08B5C37894
:104500001BB11A21FFF7C8FF08BD002008BD00BF7E
:10451000114B124A010F515C1970C0F30361515CD9
:104520005970C0F30351515C9970C0F30341515C61
:10453000D970C0F30331515C1971C0F30321515C90
:104540005971C0F30311515C997100F00F00125CB6
:10455000DA711846704700BF78AEFF1FF81A0100E5
:104560004FF0FF32014B1A60704700BF7487FF1F86
:10457000014B1868C04370477487FF1F70B400294F
:1045800014DD0B4B1A68044646180825094814F830
:10459000013B5A402B4642F30001014081EA52029E
:1045A000013BF8D1B442F2D1014B1A6070BC7047A4
:1045B0007487FF1F2083B8ED30B4037893B10A4AA3
:1045C00012680825094C5A402B4642F3000121404D
:1045D00081EA5202013BF8D110F8013F002BF2D1E1
:1045E000014B1A6030BC70477487FF1F2083B8ED01
:1045F000F0B583B004460D4617460D4B1869597B3C
:10460000012300930023019322462B4601F0CAF8B0
:104610005DB17C1E6E1E57FA86F6054D286901F0C5
:10462000DFF804F8010FB442F8D103B0F0BD00BFC9
:1046300098AEFF1F417041F06001017041F2883275
:104640004286704730B583B00546104C2046297825
:1046500000F0BAFD2368697941F08001AA7841EA47
:10466000C201EA7841EA82012A7941EA42011B68E3
:104670002046C9B298472169627B002300932046F7
:10468000012301F07BF803B030BD00BF98AEFF1FDF
:1046900010B58170C27003719DF808304371FFF747
:1046A000D1FF10BD30B583B00546104C20462978A7
:1046B00000F08AFD2368697A41F0C001AA7941EAD5
:1046C000C201EA7941EA82012A7A41EA42011B6881
:1046D0002046C9B298472169627B00230093204697
:1046E000012301F04BF803B030BD00BF98AEFF1FAF
:1046F00010B58171C27103729DF808304372FFF7E3
:10470000D1FF10BDF0B583B003460D4617460D48E6
:10471000194600F059FD5DB17C1E6E1E57FA86F6F3
:10472000084D284614F8011F00F042F8B442F8D1B1
:1047300004480169427B00230093012301F01EF825
:1047400003B0F0BD98AEFF1F70B582B004460E48AE
:10475000217800F039FD00250B4EE1893046090A29
:1047600000F026F83046A17B00F022F80235023432
:10477000082DF2D104480169427B002300930123F4
:1047800000F0FCFF02B070BD98AEFF1F08B500EB53
:104790004101CA81FFF7D8FF08BD00BF0369D3F804
:1047A0003801D3F83431C01A704700BF704700BFDA
:1047B0000369D3F84422B2F5817F09D8D3F84422A3
:1047C000501CC3F84402134483F83C110120704785
:1047D000012303710020704730B40369D3F84442C9
:1047E000B4F5817F1ED8D3F84442C4F581740134F6
:1047F000D3F844522B4403F59E73944202D2012213
:104800000271224632B18D1811F8014B03F8014BA9
:10481000A942F9D10369D3F844121144C3F84412F0
:10482000104602E001230371002030BC704700BF36
:1048300038B50446084B0360036993F84822022AFE
:1048400008D1D3F860522DB1284603F04FFC28461A
:1048500003F0DCFE204638BD181B010010B4002216
:1048600002714FF47A7484600273064A02604173E5
:104870004FF41A74044A04FB012101615DF8044BF2
:10488000704700BF181B01007887FF1F70B50446F2
:104890000D46C3681B7813F0200F40F084808368B6
:1048A00080211970C3681221197090F84932012BC8
:1048B0000AD022B9002380F84832012070BD531E6F
:1048C000DBB2012B71D800E0012225B94FF08071D5
:1048D000374B196005E0012D03D14FF00071344BC7
:1048E0001960022A5BD1D4F860624EB9082003F047
:1048F00089FE0646002103F09BFBC4F860627EB18E
:104900003379102B0CD1304603F0F0FB304603F026
:104910007DFE0023C4F86032012084F8480270BD97
:1049200033689A8B92B2998B42F008029A83D4F83A
:104930006032204A2048002D08BF104619791031F6
:104940001E4A42F821001A7953119B0003F160437B
:1049500003F5614302F01F02012101FA02F21A601D
:10496000D4F860321B689A8B92B2998B42F00202A3
:104970009A83D4F86032002D1B7903F1804303F54C
:1049800004334FF000021A7014BF9721962119705A
:1049900084F85622022384F84832012070BD012099
:1049A00084F8480270BD002070BD012070BD00BFBA
:1049B00000E100E0095E0000195E00000082FF1FB8
:1049C00010B403469848814257D10D2A4DD8DFE8EC
:1049D00002F0070C11161B20252A2F34393E4347BD
:1049E00059682C200870012043E059682420087081
:1049F00001203EE0596855200870012039E05968CF
:104A00004F200870012034E05968192008700120F7
:104A10002FE059681320087001202AE059684520CA
:104A20000870012025E059680D200870012020E061
:104A300059680B20087001201BE059680620087097
:104A4000012016E0596805200870012011E059681E
:104A50000220087001200CE059680120087008E06D
:104A6000596800200870012003E05A680020107087
:104A70000D22996904240C70B3E16C48814253D132
:104A80000C2A49D8DFE802F0070C11161B20252A52
:104A90002F34393E430059682C20087001203FE034
:104AA00059682420087001203AE059681E200870D7
:104AB000012035E059684F200870012030E0596826
:104AC0001520087001202BE059680F200870012084
:104AD00026E059680E200870012021E059680C205A
:104AE000087001201CE059680A200870012017E0B6
:104AF000596809200870012012E0596804200870E4
:104B000001200DE0596802200870012008E0596872
:104B100000200870012003E05A68002010700C2269
:104B2000996904240C705CE1414881424DD10B2A03
:104B300043D8DFE802F0060B10151A1F24292E3384
:104B4000383D59682720087001203AE059685A20FA
:104B50000870012035E059681C200870012030E001
:104B600059688520087001202BE0596814200870CE
:104B7000012026E0596845200870012021E059688D
:104B80000D20087001201CE059680B2008700120DE
:104B900017E0596809200870012012E059680320C5
:104BA000087001200DE0596802200870012008E01B
:104BB000596800200870012003E05A680020107036
:104BC0000B22996904240C700BE11A4881424AD1E6
:104BD000092A40D8DFE802F0050A0F14191E233015
:104BE000353A596895200870012038E059685520F9
:104BF0000870012033E059688520087001202EE0FC
:104C0000596815200870012029E05968452008706E
:104C1000012024E059680C20087001201FE0596829
:104C20000A20087001201AE000879303007E5603D3
:104C3000006CDC0200512502596805200870012033
:104C40000DE0596802200870012008E05968002032
:104C50000870012003E05A68002010700922996949
:104C600003240C70BDE06148814237D1072A2DD85A
:104C7000DFE802F004090E13181D222759681F20CF
:104C80000870012026E0596885200870012021E085
:104C900059681420087001201CE0596845200870EC
:104CA000012017E059680B200870012012E05968B4
:104CB0000520087001200DE05968022008700120CD
:104CC00008E0596800200870012003E05A680020BD
:104CD00010700722996902240C7082E044488142D6
:104CE0002CD1052A22D8DFE802F003080D12171C88
:104CF00059681D20087001201CE0596814200870B4
:104D0000012017E0596843200870012012E059681B
:104D10000B20087001200DE0596803200870012065
:104D200008E0596800200870012003E05A6800205C
:104D300010700522996901240C7052E02D488142BF
:104D400021D1032A17D8DFE802F002070C115968B5
:104D500014200870012012E059680B20087001200F
:104D60000DE0596803200870012008E05968002010
:104D70000870012003E05A6800201070032299692E
:104D800001240C702DE01C48814215D112B1012A7A
:104D900005D009E059680B200870012008E0596827
:104DA00000200870012003E05A68002010700122E2
:104DB000996900240C7014E0104881420CD122B98A
:104DC0005A6800211170012002E05A68002010701A
:104DD000996900220A7004E05968002008709969F6
:104DE000087083F84C225DF8044B704700366E0162
:104DF0000024F40000127A0000093D0080841E00A7
:104E0000F8B504469DF8180000284DD0E5682D78C7
:104E100015F0200F44D147E0012A0ED128B1002B14
:104E20005AD053E0132001F021FE012384F84A32C6
:104E30003F4B1D60043B1D6060E028B1002B57D044
:104E400050E0102001F012FE002384F84A32394B62
:104E50001D60043B1D6051E0012923D1042A0FD1BC
:104E600028B1002B52D04BE01D2001F0FFFD0423A0
:104E700084F84A32304B1E6004331E600120F8BDB6
:104E800028B1002B4ED047E01A2001F0EFFD03239C
:104E900084F84A32294B1D60043B1D600120F8BD97
:104EA0000020F8BD0120F8BD002B40F2032508BF0B
:104EB0004FF4197540F2036640F26467002B08BF97
:104EC0003E4684F84B320029C6D1A5E712200221C4
:104ED00001F0CCFD0221A5E71220002101F0C6FD62
:104EE00000219FE71120022101F0C0FD0221A8E767
:104EF0001120002101F0BAFD0021A2E70120F8BD38
:104F00001E20022101F0B2FD0221ADE71E2000218A
:104F100001F0ACFD0021A7E71F20022101F0A6FD52
:104F20000221B1E71F20002101F0A0FD0021ABE725
:104F300004A004400CA0044000D004402CB0044065
:104F4000F0B583B004469DF820009DF82C600D4616
:104F500029B931490F6847F040070F6006E0012981
:104F600004D12D490F6847F080070F6084F849226B
:104F7000002184F84E123AB9636920221A7022681F
:104F80001170E269117011E0626900283CD132E0D1
:104F90005B00DBB21370E2694300DBB205E0400066
:104FA000C0B21070E2695B00DBB2137000230093A3
:104FB000204629469DF824209DF82830FFF720FF41
:104FC00094F84A32022B20460CBF14491449324649
:104FD000FFF7F6FC204629469DF83020FFF756FCE7
:104FE00094F849321BB9A36880221A7012E0A368B2
:104FF000C0221A700EE02021117022685B00DBB223
:105000001370E2690023D0E72821117022689842CA
:10501000BED8C4E703B0F0BD3480044000D8B80562
:10502000006CDC022DE9F04F83B082468B4690F88D
:105030004A32042B4FD8DFE803F03134030609006D
:10504000172616242FE01E261D242CE01F261A24C6
:1050500029E02046494601F0D7FC2B46013B7FF46E
:10506000FDAF2046414601F0CFFC2B46013B7FF4CB
:10507000FDAF304601F0ECFC18B9013F17F0FF0717
:10508000E7D100218AF84E129AF84A229AF84B3258
:10509000009150465946FFF7B3FE1CE01226132438
:1050A00001E0112610249AF84B32002B304614BF31
:1050B0000221002101F0DAFC2046012101F0A4FCCC
:1050C0002046012101F0D2FC0B274FF00009A0255A
:1050D0004FF00108CDE703B0BDE8F08F2DE9F843AC
:1050E000054688461646994601F0DAFD0746AB6844
:1050F0001A7812F0200F0ED0B4221A7032E0EC6849
:10510000247814F0200F06D1002385F84932AB68CB
:10511000B0221A7006E0002EF1D001F0C1FDC01BD4
:105120008642ECD8AB681B7813F0200F0ED12846CE
:105130004146FFF777FFEB681B7813F0200F05D18E
:10514000002385F84932AB68B0221A70AB681B782F
:1051500003F0200303F0FF0023B9042385F84E3247
:10516000BDE8F88395F84832013BDBB2012B20D82B
:1051700001F0B2F9124B134AB8F1000F18BF1346F1
:105180001B78984218DC0F2804DC012089F8000005
:10519000BDE8F8830A4B0B4AB8F1000F14BF9046E4
:1051A0009846A0F11003DBB288F800300120BDE87A
:1051B000F8830120BDE8F8830120BDE8F88300BF33
:1051C00018E400E019E400E00369490083F83C11A9
:1051D00003690122C3F8442200230371026982F8A3
:1051E0004E3270472DE9F04383B0054614461F4602
:1051F00000238DF80730D0F84432002B00F0C8802F
:105200000FB9D0F86472EB6812221A7028463A4639
:105210000DF10703FFF762FF002800F0B98095F851
:1052200048321BB19DF80720002A54D001F038FD08
:105230008146012385F84E3285F84D4200264FF015
:1052400002082BE02B69AA1992F83C211A70EC682D
:10525000217811F0020FFBD084F80080EB681978F8
:10526000C9B211F0100F09D0072385F84E32AB6890
:1052700080221A70EB6810221A701BE011F0010FE7
:105280000BD01EB9052385F84E3202E0062385F8BF
:105290004E32AB6880221A700CE00136D5F84432E9
:1052A0009E4207D2002FCDD001F0FAFCC9EB0000DE
:1052B0008742C7D8D5F84432B3428CBF04230023B9
:1052C00085F84E3295F84D32012BAB680CBF802229
:1052D000B0221A705CE05A1ED2B2012A58D80122BC
:1052E00085F84E2285F84D420022C5F84022022B57
:1052F00014D1D5F84432042B18D80FE013689B68FA
:1053000033B9136800210120187259729972D97249
:10531000136800221A765A769A76DA76AB68F0220B
:105320001A702B6995F83C211A7031E0012385F839
:105330005632D5F8602205F59F70D5F84442033CFB
:1053400011680B68002308601168012008714B7117
:105350001168CB71116808724B728B72CB72116835
:105360006042C8601068C18BA1B2C1831268D08A44
:10537000D182D5F86022296910680469016110683A
:105380000375437510688371B1F1804FB9D3B5E7E8
:1053900003B0BDE8F08300BF2DE9F04383B00446BD
:1053A00016469DF828700B9D00208DF80700002BF5
:1053B00000F04E81B3F5827F03D3082384F84E3288
:1053C00046E1C4F850320023C4F83431C4F838310F
:1053D0000DB9D4F86452E36812221A7020462A46A6
:1053E0000DF10703FFF77AFE002800F0318194F8F1
:1053F000483223B19DF80720002A00F0968001F082
:105400004FFC8046022384F84E3284F84D722369A3
:10541000720042F00102D2B21A70E268137813F0FF
:10542000020FFBD002231370E3681B78DBB213F08A
:10543000100F09D0072384F84E32A36880221A7017
:10544000E36810221A7003E113F0010F06D0052360
:1054500084F84E32A36880221A70F9E0032384F89E
:105460004E32D4F85032012BA3680CBFA822A022E0
:105470001A7023691B780226002745E00B7813F089
:10548000020FFBD00E70002D00F0AA8001F008FC86
:10549000C8EB000085428CBF00230123D4F83811EB
:1054A0000231D4F85022914205D03BB194F85522F4
:1054B00022B900E03B46A26882F80090D4F8381187
:1054C0000131D4F85022914280F09F80002B00F0EF
:1054D000918094F85522002A40F0AA808AE00422A4
:1054E00084F84E2201E084F84E7294F84D22012A8D
:1054F00006D12022013A7FF4FDAFA268802111700D
:1055000023B1012384F855324FF0A809D4F838218B
:10551000D4F850329A4280F09B8094F84E32DBB23D
:10552000032B40F09580E168A8E75A1ED2B2012A09
:1055300000F28E80022284F84E2284F84D7293424B
:1055400044D1D4F85032042B40D9012384F8563288
:10555000D4F8603221691868026800220160186876
:10556000027142711868C271B1F1804F02D31A689A
:10557000926832B91A68002101201072517291723A
:10558000D1721A680023137353739373D373D4F8CF
:10559000602204F13005D4F85002013811680F6917
:1055A0000D61116801250D754B7511688B711168BE
:1055B0000D724B728B72CB72136841429961136802
:1055C000D98B81B2D9831368DA8AD982A368F02291
:1055D0001A702369720042F00102D2B21A7037E0E9
:1055E000D4F838210232D4F850329A423FF462AFF4
:1055F0003B4663E722691178D4F83821501CC4F87F
:105600003801224482F830107AE784F85572A26893
:10561000B021117022691178D4F83821501CC4F8D7
:105620003801224482F83010002B3FF45CAF56E77B
:1056300084F85572A268B021117022691178D4F8EB
:105640003821501CC4F83801224482F8301046E753
:1056500003B0BDE8F08300BF036993F84E32043B0A
:10566000042B0CD8DFE803F0091005070300012024
:10567000704703207047042070470420704700796A
:10568000003018BF012070470220704790F84E325A
:1056900013F0FF0F1BD090F84E32DBB2052B18D061
:1056A00090F84E32DBB2062B15D090F84E32DBB2BA
:1056B000072B12D090F84E32DBB2042B0FD090F8AB
:1056C0004E02C0B2082814BF0020012070470120FC
:1056D000704701207047012070470120704701206A
:1056E000704700BF70B5044615460AB9D0F8645239
:1056F00001F0D6FA06462046FFF7C8FF00283AD147
:10570000002DF8D001F0CCFA801B8542F3D801F0CF
:10571000C7FA801B854210D894F84832022B0CD16E
:1057200094F8563213F0FF0F07D02046FFF7AEFF74
:105730000028FAD0042384F84E3294F84E32DBB2BB
:10574000012B09D094F84E32DBB2022B04D094F82E
:105750004E32DBB2032B02D1042384F84E32802375
:10576000013B7FF4FDAF94F84E3213F0FF0F14BFEE
:105770000020012070BD002DDFD0C8E7F8B5074636
:105780000E461546069C084611461A462346FFF764
:1057900029FD304629462246FFF7A4FF3846FFF789
:1057A0005BFFF8BD70B582B004460D461E468BB156
:1057B0009DF8183000930799019129463346FFF769
:1057C000EBFD20462946079AFFF78CFF20B1D4F85D
:1057D000380102E0002000E0002002B070BD00BFF0
:1057E000D0F83421D0F838319A4208D2D0F8343188
:1057F0005A1CC0F83421184490F8300070474FF01C
:10580000FF30704708B50069FFF7EAFF08BD00BF29
:10581000D0F83421D0F838319A423DBFD0F8343135
:10582000C01890F830004FF0FF30704708B500699D
:10583000FFF7EEFF08BD00BF38B50446C268157813
:10584000EDB281680B78DBB213F0200F00F0C3815A
:1058500013F0100F00F0058190F85632DBB2022BE6
:1058600004D090F85632DBB2032B4CD1D4F860123E
:105870000B689B8B03F080039BB2002B00F08082AF
:1058800094F85632DBB2022B40F07A826EE2137843
:1058900013F0800FFBD00A79B54B1A70002384F8FF
:1058A0005632D4F84432013BC4F840322369D4F86C
:1058B0004022224492F83C211A7020E0AD4B1A6835
:1058C0000B7901219940114219D0AB4A1370D4F8D9
:1058D00060321A79A94B1A70002384F8563215F0F9
:1058E000100F0CD0072384F84E32A36880221A7060
:1058F000E36812221A700023C4F8403238BDE3680E
:1059000002221A7038BD90F84E32DBB2012B56D10C
:1059100015F0100F0DD0002380F85632072280F8C2
:105920004E2280220A70C26812211170C0F84032E3
:1059300038BD15F0010F0FD0002380F85632D0F893
:1059400040321BB9052380F84E3202E0062380F86E
:105950004E3280230B702EE0D0F840320133C0F875
:105960004032D0F8442293420AD3002380F84E32CA
:1059700090F84D32012B0CBF8023B0230B701AE03E
:1059800090F85632DBB2012B0ED1022380F856324A
:10599000F1230B70D0F860321A79794B1A700369D1
:1059A00090F83D211A7006E00369D0F840220244C5
:1059B00092F83C211A70E36802221A7038BD90F800
:1059C0004E32DBB2022B36D115F0100F08D0072370
:1059D00080F84E3280230B70C36812221A7038BDD3
:1059E00015F0010F05D0052380F84E3280230B708F
:1059F0001DE090F85632DBB2012B0CD1022380F867
:105A00005632E1230B70D0F860321A795C4B1A7071
:105A100003691B780BE0032380F84E32D0F8503234
:105A2000012B0CBFE823E0230B7003691B78E368AC
:105A300002221A7038BD90F84E32DBB2042B0AD124
:105A400090F84D32012B0CBF8023B0230B70C3683C
:105A500002221A7038BD80230B70C36802221A70AC
:105A600038BD90F85632DBB2022B04D090F8563293
:105A7000DBB2032B56D1D4F860321A68928B02F055
:105A8000800292B2002A00F08C8194F85622D2B2A1
:105A9000022A40F086817AE11A79354B1A70002388
:105AA00084F8563294F84E32DBB2042B1CBF00232C
:105AB00084F84E32A368B0221A70D4F85032013BF9
:105AC000C4F83831D4F838315A1CC4F83821226966
:105AD0001278234483F8302094F84D32012B1DD1E5
